:0A000000020548D296C297D297225B
:10000B00020852E709F608DFFA8046E709F208DF33
:10001B00FA803E88828C83E709F0A3DFFA8032E313
:10002B0009F608DFFA8078E309F208DFFA807088B6
:10003B00828C83E309F0A3DFFA806489828A83E0F0
:10004B00A3F608DFFA805889828A83E0A3F208DFDF
:10005B00FA804C80D280FA80C680D4806980F2808E
:10006B0033801080A680EA809A80A880DA80E280B4
:10007B00CA803389828A83ECFAE493A3C8C582C809
:10008B00CCC583CCF0A3C8C582C8CCC583CCDFE973
:10009B00DEE7800D89828A83E493A3F608DFF9EC0F
:1000AB00FAA9F0EDFB2289828A83ECFAE0A3C8C59A
:1000BB0082C8CCC583CCF0A3C8C582C8CCC583CCC1
:1000CB00DFEADEE880DB89828A83E493A3F208DF30
:1000DB00F980CC88F0EF60010E4E60C388F0ED2400
:1000EB0002B4040050B9F582EB2402B4040050AF03
:1000FB00232345822390005E73BB010689828A838A
:10010B00E0225002E722BBFE02E32289828A83E4CB
:10011B009322BB010CE58229F582E5833AF583E056
:10012B00225006E92582F8E622BBFE06E92582F875
:10013B00E222E58229F582E5833AF583E49322BB3B
:10014B00010689828A83F0225002F722BBFE01F35B
:10015B0022F8BB010DE58229F582E5833AF583E8A8
:10016B00F0225006E92582C8F622BBFE05E925825E
:10017B00C8F222EF8DF0A4A8F0CF8CF0A428CE8D7E
:10018B00F0A42EFE22BC000BBE0029EF8DF084FFE5
:10019B00ADF022E4CCF875F008EF2FFFEE33FEEC58
:1001AB0033FCEE9DEC984005FCEE9DFE0FD5F0E97F
:1001BB00E4CEFD22EDF8F5F0EE8420D21CFEADF07E
:1001CB0075F008EF2FFFED33FD4007985006D5F083
:1001DB00F222C398FD0FD5F0EA22C5F0F8A3E02870
:1001EB00F0C5F0F8E582158270021583E038F02235
:1001FB00A3F8E0C5F025F0F0E582158270021583B7
:10020B00E0C838F0E822E4FDFC7FAEFE1208EFE414
:10021B00FDFC7F40FE120900E4FDFC7FB0FE1209DD
:10022B0000E4FDFC7F81FE120900E4FDFC7FFFFE74
:10023B00120900E4FDFC7FA1FE120900E4FDFC7F26
:10024B00A6FE120900E4FDFC7FA8FE120900E4FDE6
:10025B00FC7F3FFE120900E4FDFC7FC8FE12090083
:10026B00E4FDFC7FD3FE120900E4FDFCFFFE120946
:10027B0000E4FDFC7FD5FE120900E4FDFC7F80FE4F
:10028B00120900E4FDFC7FD8FE120900E4FDFC7F9F
:10029B0005FE120900E4FDFC7FD9FE120900E4FD06
:1002AB00FC7FF1FE120900E4FDFC7FDAFE1209006F
:1002BB00E4FDFC7F12FE120900E4FDFC7FDBFE1265
:1002CB000900E4FDFC7F30FE120900E4FDFC7F8D8C
:1002DB00FE120900E4FDFC7F14FE120900E4FDFC94
:1002EB007FAFFE020900900089EBF0900087EFF0E2
:1002FB00A3EDF0E490008AF0120826E4F9E9C39428
:10030B0010748094805031900089E075F040A424E3
:10031B0054F582E5F03412F583E58229F582E43554
:10032B0083F583E493FF7E007D017C00120900902E
:10033B00008AE004F00980C5900087E0FFA3E00489
:10034B00FD120826E4F9E9C39410748094805031AF
:10035B00900089E075F040A42474F582E5F0341226
:10036B00F583E58229F582E43583F583E493FF7EFB
:10037B00007D017C0012090090008AE004F00980E6
:10038B00C522430000FF15BC604000450000000083
:10039B000000000000000000000000000000000052
:1003AB000000000000000000000000000000000042
:1003BB000000000000000000000000000000000032
:1003CB00000000000000000000000000604000057D
:1003DB000000000000000000000000000000000012
:1003EB000000000000000000000000000000000002
:1003FB0000000000000000000000000000000000F2
:10040B0000000000000000000000000000000000E1
:10041B00410003FF43009DFF15940078877C007D0E
:10042B00017BFF7A1579AD7E007F051200DE788C9B
:10043B007C007D017BFF7A1579B27E007F0512006F
:10044B00DE7B017A00798790009B7405F07F101298
:10045B0007237B017A00798C9000957405F07F104F
:10046B001206DBE4FFEFFD7C00C3940574809480DF
:10047B00501D748C2FF582E43400F583E0FE7487F5
:10048B002FF582E43400F583E0B506030F80D6ED3B
:10049B0064054C601990009DE0FBA3E0FAA3E0F922
:1004AB007D1A1209947FF47E0112097880932290B1
:1004BB000087EBF0A3EAF0A3E9F0E4A3F0A3F0A329
:1004CB00F0C2937FE212076AD2937E002095047FDD
:1004DB000080027F01EF4E601E7F647E0012097860
:1004EB0090008CE0FF04F0EF641E70DE1209F11235
:1004FB00065C7F011209117F07120A1C90008AEF1C
:10050B00F0FD7F071209C890008AE030E62C7F606F
:10051B00120A1C90008BEFF0900087E0FBA3E0FA2F
:10052B00A3E0F9900095EFF07F611206DB7DFF7F72
:10053B00E21209C890008BE0FF227F0022787FE453
:10054B00F6D8FD75810702058F0205D4E493A3F855
:10055B00E493A34003F68001F208DFF48029E493CF
:10056B00A3F85407240CC8C333C4540F4420C883C6
:10057B004004F456800146F6DFE4800B01020408C8
:10058B001020408090038DE47E019360BCA3FF5448
:10059B003F30E509541FFEE493A360010ECF54C016
:1005AB0025E060A840B8E493A3FAE493A3F8E4939E
:1005BB00A3C8C582C8CAC583CAF0A3C8C582C8CAA6
:1005CB00C583CADFE9DEE780BEE4900085F0A3F0C7
:1005DB001202111207E712095A1209F1120426121C
:1005EB00065C7F01120911E4FB7D02FF1202F1434D
:1005FB008902758CDC758ADCD28CD2A9D2AFD282FF
:10060B00D284C280C2857B017A0079051204BAEFCD
:10061B0060F4900006E0FF7E0064017008C2A390B6
:10062B00000374C8F0EF64024E7008D2A39000036D
:10063B0074FFF0EF64034E7008C2A390000374C8FC
:10064B00F0EF64044E70BFD2A390000374FFF080F0
:10065B00B5788D7C007D017BFF7A1579B77E007FA5
:10066B00051200DED2907F701208847D017F1C1270
:10067B0009C87D077F1D1209C87F1C120A1C7F1D2C
:10068B00120A1C7D0AE4FF1209C87D017F011209C1
:10069B00C87D017F021209C87D037F031209C87D43
:1006AB00FF7F041209C87D3C7F051209C87D267F98
:1006BB00061209C87B017A00798D7D051209AE7B84
:1006CB00017A00798D9000967405F0E4FF0207AF74
:1006DB00900092EBF0A3EAF0A3E9F0C29312076A41
:1006EB00E4900096F0900095E0FFA3E0C39F5025A7
:1006FB007FFF12076A900092E0FBA3E0FAA3E0F9F8
:10070B00900096E0F582758300EF12015C900096E5
:10071B00E004F080D0D29322900098EBF0A3EAF0A3
:10072B00A3E9F0C293EF4420FF12076AE490009C08
:10073B00F090009BE0FFA3E0FEC39F501F9000983A
:10074B00E0FBA3E0FAA3E0F98E8275830012011D92
:10075B00FF12076A90009CE004F080D5D29322E44C
:10076B00FEFDC291EEC39408748094805033EF5415
:10077B008064807004D2948002C294EF25E0FFD293
:10078B009100ED25E0FD7A002092047B0080027B36
:10079B0001EB64014A7004ED4401FDC291000E802F
:1007AB00C3AF0522900096E0FED39405748094802D
:1007BB0040067D057E058000900096EEF0EFD39409
:1007CB000574809480AE0740027E05AF06EF240AC5
:1007DB00FF900096E090009BF0020723E4F9E9FFFD
:1007EB007E00C394087480948050271208E5E4902F
:1007FB000087F0900087E0C3948074809480500F42
:10080B007D017C00E4FFFE120900E004F080E409A6
:10081B0080CC22E0FE131313541FFDA907ED24B067
:10082B00FFE433FEE4FDFC120900E954F0C4540F5D
:10083B007E004410FFE4FDFC120900E9540FFF7E1B
:10084B0000E4FDFC020900C0E0C083C082C0D0758B
:10085B00D000C007900004E004F0E0FFF47004C285
:10086B0081C283900003E0B50704D281D283D00705
:10087B00D0D0D082D083D0E032900092EFF0E4A3BE
:10088B00F0EF5470900092F0120A29900093EFF061
:10089B00C2937F2712076A900093E0FF900092E0CB
:1008AB004FFF12076AD293020A29AC07120A337F51
:1008BB0078C296E4FEEEC3940874809480501AAD0F
:1008CB0007ED548064807004D2978002C297EF25A5
:1008DB00E0FFD296C2960E80DC22EF24B0FFEE33FF
:1008EB00FEE4FDFC120900E4FDFCFFFE1209007F93
:1008FB0010E4FDFCFEAB07AA06ED4C6003020A0EEA
:10090B00AF03120A002290008DEFF0E4FF120A1CD5
:10091B0090008DE0FD7C007006EF54FEFF800AED29
:10092B0064014C7004EF4401FFAD07E4FF0209C8FA
:10093B007F017E007D507C00EF1FAA0670011E4ACE
:10094B00600CED1DAA0470011C4A60EC80F422E4DB
:10095B00F591759280F591759220F59175920875C8
:10096B009140F592C291D294D292D293229000915F
:10097B00EEF0A3EFF090009174FFF5F01201FB4540
:10098B00F0600512093B80ED22AF051DEF601330BF
:10099B0099FDC299120104F599740129F9E43AFA07
:1009AB0080E722EDD3940574809480AF0540027FDD
:1009BB0005AD0790009BEFF07F100207239000928C
:1009CB00EDF0C293EF4420FF12076A900092E0FF14
:1009DB0012076AD293221208BC1209ECAF04120858
:1009EB00BCD296C29622439204D290439110C290ED
:1009FB00D295D293221208B51209ECE4FF1209E149
:100A0B000200031208B51209EC7F401209E1020043
:100A1B0003C29312076A7FFF12076AD29322C29313
:100A2B007F0712076AD29322D296D297C297C296A9
:100A3B00220000000000000000002F000000000753
:100A4B0000070000147F147F1400242A7F2A120051
:100A5B006264081323003649552250000005030039
:100A6B000000001C224100000041221C0000140861
:100A7B003E08140008083E0808000000A0600000B3
:100A8B000808080808000060600000002010080437
:100A9B0002003E5149453E0000427F40000042614A
:100AAB00514946002141454B31001814127F10006B
:100ABB002745454539003C4A494930000171090534
:100ACB000300364949493600064949291E000036BC
:100ADB0036000000005636000000081422410000CA
:100AEB0014141414140000412214080002015109BB
:100AFB000600324959513E007C1211127C007F498D
:100B0B00494936003E41414122007F4141221C00B0
:100B1B007F49494941007F09090901003E41494983
:100B2B007A007F0808087F0000417F4100002040C9
:100B3B00413F01007F08142241007F4040404000AC
:100B4B007F020C027F007F0408107F003E41414171
:100B5B003E007F09090906003E4151215E007F09D5
:100B6B001929460046494949310001017F0101001D
:100B7B003F4040403F001F2040201F003F40384077
:100B8B003F006314081463000708700807006151E5
:100B9B0049454300007F41410000552A552A550025
:100BAB000041417F0000040201020400404040402C
:100BBB0040000001020400002054545478007F4888
:100BCB0044443800384444442000384444487F00AF
:100BDB00385454541800087E0901020018A4A4A428
:100BEB007C007F080404780000447D4000004080B6
:100BFB00847D00007F102844000000417F400000EE
:100C0B007C04180478007C080404780038444444BD
:100C1B003800FC242424180018242418FC007C0819
:100C2B0004040800485454542000043F444020005E
:100C3B003C4040207C001C2040201C003C403040AD
:100C4B003C004428102844001CA0A0A07C00446455
:100C5B00544C44141414141414000000000000002D
:100C6B00000000000000000000000000F800000081
:100C7B0000000000333000000000100C06100C06C2
:100C8B0000000000000000000040C07840C0784029
:100C9B0000043F04043F040400007088FC0830008B
:100CAB0000001820FF211E0000F008F000E01800E3
:100CBB000000211C031E211E0000F008887000009C
:100CCB00001E2123241927211010160E00000000EE
:100CDB00000000000000000000000000E01804020B
:100CEB0000000000071820400000020418E000007C
:100CFB00000040201807000000404080F08040407A
:100D0B00000202010F01020200000000F0000000CF
:100D1B00000101011F0101010000000000000000A3
:100D2B000080B07000000000000000000000000018
:100D3B0000000101010101010100000000000000A1
:100D4B000000303000000000000000000080601840
:100D5B0004006018060100000000E010080810E015
:100D6B0000000F102020100F00001010F8000000E2
:100D7B00000020203F202000000070080808887029
:100D8B0000003028242221300000300888884830A9
:100D9B00000018202020110E000000C02010F800C9
:100DAB000000070424243F240000F8088888080862
:100DBB00000019212020110E0000E0108888180077
:100DCB0000000F112020110E0000380808C8380849
:100DDB00000000003F0000000000708808088870C9
:100DEB0000001C222121221C0000E010080810E04A
:100DFB00000000312222110F00000000C0C00000D3
:100E0B0000000000303000000000000080000000F7
:100E1B0000000080600000000000008040201008EF
:100E2B0000000102040810200040404040404040B8
:100E3B000004040404040404000008102040800093
:100E4B00000020100804020100007048080808F098
:100E5B00000000003036010000C030C828E810E068
:100E6B00000718272423140B000000C038E00000F3
:100E7B0000203C23020227382008F888888870005D
:100E8B0000203F202020110E00C030080808083831
:100E9B0000071820202010080008F808080810E0A8
:100EAB0000203F202020100F0008F88888E8081049
:100EBB0000203F20202320180008F88888E808101D
:100ECB0000203F200003000000C030080808380055
:100EDB000007182020221E020008F808000008F85E
:100EEB0008203F210101213F20000808F8080800D5
:100EFB00000020203F2020000000000808F8080810
:100F0B0000C08080807F00000008F888C028180887
:100F1B0000203F20012638200008F80800000000C0
:100F2B0000203F20202020300008F8F800F8F808B7
:100F3B0000203F003F003F200008F830C00008F8B9
:100F4B0008203F200007183F00E01008080810E0B9
:100F5B00000F10202020100F0008F808080808F0D8
:100F6B0000203F210101010000E01008080810E0FB
:100F7B00000F18242438504F0008F8888888887090
:100F8B0000203F2000030C30200070880808083830
:100F9B00000038202121221C00180808F808081826
:100FAB00000000203F2000000008F808000008F8AF
:100FBB0008001F202020201F000878880000C83858
:100FCB0008000007380E010000F80800F80008F8C8
:100FDB0000033C0700073C03000818688080681872
:100FEB000820302C03032C30200838C800C83808E0
:100FFB00000000203F2000000010080808C8380837
:10100B00002038262120201800000000FE020202DA
:10101B00000000007F40404000000C30C00000008A
:10102B0000000000010638C00000020202FE0000B2
:10103B0000004040407F0000000000040202020458
:10104B000000000000000000000000000000000095
:10105B00008080808080808080000202040000007D
:10106B000000000000000000000000808080800075
:10107B00000019242222223F2008F8008080000063
:10108B0000003F112020110E000000008080800026
:10109B0000000E112020201100000000808088F835
:1010AB0000000E112020103F200000808080800067
:1010BB0000001F222222221300008080F0888888E3
:1010CB00180020203F2020000000008080808080BE
:1010DB0000006B94949493600008F800808080006B
:1010EB0000203F210000203F200080989800000046
:1010FB00000020203F202000000000008098980076
:10110B000000C08080807F000008F8000080808095
:10111B0000203F24022D302000000808F8000000BA
:10112B00000020203F202000008080808080808075
:10113B0000203F20003F20003F8080008080800007
:10114B0000203F210000203F200000808080800095
:10115B0000001F202020201F0080800080800000C6
:10116B000080FFA12020110E0000000080808080F5
:10117B0000000E112020A0FF8080808000808080E6
:10118B000020203F21200001000000808080808013
:10119B00000033242424241900008080E080800088
:1011AB00000000001F2020000080800000008080D5
:1011BB0000001F202020103F2080808000008080B6
:1011CB008000010E300806010080800080008080C6
:1011DB00800F300C030C300F00008080008080806B
:1011EB00000020312E0E3120008080800000808096
:1011FB008080818E70180601000080808080808046
:10120B00000021302C2221300000000000807C02E5
:10121B000200000000003F404000000000FF000003
:10122B000000000000FF0000000002027C800000B4
:10123B00000040403F0000000000060101020204D4
:10124B00040000000000000000101010FF105044BC
:10125B005465C64464544440000000000000000084
:10126B000000000000000000000444827F01828225
:10127B004A562322524E820200000000000000005A
:10128B0000000000000000000080642C3424242C9B
:10129B00322222322E23A260000000000000000048
:1012AB000000000000000000008080414325291150
:1012BB001111292543408080000000000000000030
:1012CB0000000000000000000090523410FF1034AA
:1012DB005280708F0808F808000000000000000022
:1012EB00000000000000000000829A566322528E1C
:1012FB00008040330C3340800000000000000000F1
:10130B000000000000000000001010FF109000FE15
:10131B00929292F292929E800000000000000000D8
:10132B0000000000000000000042827F0180601F6F
:10133B0000FC44474444FC00000000000000000097
:10134B000000000000000000000000000000000092
:10135B000000000000000000000000000000000082
:10136B000000000000000000000000363600000006
:10137B000000000000000000000000000000000062
:10138B00000000000000000000000000FE9292929E
:10139B00FE929292FE000000000000000000000090
:1013AB0000000000000000000044442425140C043D
:1013BB00FF040C142524444400000000000000002E
:1013CB00000000000000000000404042424242C2C8
:1013DB0042424242424240400000000000000000F6
:1013EB0000000000000000000000207028242320D3
:1013FB002020242830E00000000000000000000046
:10140B000000000000000000002424A4FEA3220022
:10141B0022CC0000FF0000000000000000000000D4
:10142B00000000000000000000080601FF0001049E
:10143B0004040404FF02020200000000000000008C
:10144B00000000000000000000101010FF109008BA
:10145B00888888FF8888880800000000000000004A
:10146B000000000000000000000444827F01808027
:10147B0040432C1028468180000000000000000033
:10148B0000000000000000000004040484E43C277A
:10149B0024242424E40404040000000000000000C1
:1014AB0000000000000000000004020100FF090919
:1014BB00090949897F0000000000000000000000BE
:1014CB0000000000000000000000FE225A8600FE13
:1014DB009292929292FE0000000000000000000029
:1014EB0000000000000000000000FF04080700FFE0
:1014FB004020030C142241400000000000000000BB
:10150B000000000000000000000080402018068052
:10151B0000071820408000000000000000000000C1
:10152B0000000000000000000001002070282621B0
:10153B0020202438600001010000000000000000A2
:10154B000000000000000000000010129292929226
:10155B009292121202FE0000000000000000000038
:10156B000000000000000000000000003F10101001
:10157B00103F0040807F00000000000000000000D2
:10158B00000000000000000000524632344C3031A5
:10159B00206973206E6F742066696E6420212E2E75
:1015AB002E00A5A5A5A5A500000000003443101032
:0C15BB000179756E67756F6B656A6900D9
:00000001FF
