:0A000000020605D296C297D297229D
:10000B000207E4E709F608DFFA8046E709F208DFA2
:10001B00FA803E88828C83E709F0A3DFFA8032E313
:10002B0009F608DFFA8078E309F208DFFA807088B6
:10003B00828C83E309F0A3DFFA806489828A83E0F0
:10004B00A3F608DFFA805889828A83E0A3F208DFDF
:10005B00FA804C80D280FA80C680D4806980F2808E
:10006B0033801080A680EA809A80A880DA80E280B4
:10007B00CA803389828A83ECFAE493A3C8C582C809
:10008B00CCC583CCF0A3C8C582C8CCC583CCDFE973
:10009B00DEE7800D89828A83E493A3F608DFF9EC0F
:1000AB00FAA9F0EDFB2289828A83ECFAE0A3C8C59A
:1000BB0082C8CCC583CCF0A3C8C582C8CCC583CCC1
:1000CB00DFEADEE880DB89828A83E493A3F208DF30
:1000DB00F980CC88F0EF60010E4E60C388F0ED2400
:1000EB0002B4040050B9F582EB2402B4040050AF03
:1000FB00232345822390005E73BB010689828A838A
:10010B00E0225002E722BBFE02E32289828A83E4CB
:10011B009322BB010CE58229F582E5833AF583E056
:10012B00225006E92582F8E622BBFE06E92582F875
:10013B00E222E58229F582E5833AF583E49322BB3B
:10014B00010689828A83F0225002F722BBFE01F35B
:10015B0022F8BB010DE58229F582E5833AF583E8A8
:10016B00F0225006E92582C8F622BBFE05E925825E
:10017B00C8F222EF8DF0A4A8F0CF8CF0A428CE8D7E
:10018B00F0A42EFE22BC000BBE0029EF8DF084FFE5
:10019B00ADF022E4CCF875F008EF2FFFEE33FEEC58
:1001AB0033FCEE9DEC984005FCEE9DFE0FD5F0E97F
:1001BB00E4CEFD22EDF8F5F0EE8420D21CFEADF07E
:1001CB0075F008EF2FFFED33FD4007985006D5F083
:1001DB00F222C398FD0FD5F0EA22C5F0F8A3E02870
:1001EB00F0C5F0F8E582158270021583E038F02235
:1001FB00A3F8E0C5F025F0F0E582158270021583B7
:10020B00E0C838F0E822E4FDFC7FAEFE12095EE4A4
:10021B00FDFC7F40FE12096FE4FDFC7FB0FE12096E
:10022B006FE4FDFC7F81FE12096FE4FDFC7FFFFE96
:10023B0012096FE4FDFC7FA1FE12096FE4FDFC7F48
:10024B00A6FE12096FE4FDFC7FA8FE12096FE4FD08
:10025B00FC7F3FFE12096FE4FDFC7FC8FE12096FA5
:10026B00E4FDFC7FD3FE12096FE4FDFCFFFE1209D7
:10027B006FE4FDFC7FD5FE12096FE4FDFC7F80FE71
:10028B0012096FE4FDFC7FD8FE12096FE4FDFC7FC1
:10029B0005FE12096FE4FDFC7FD9FE12096FE4FD28
:1002AB00FC7FF1FE12096FE4FDFC7FDAFE12096F91
:1002BB00E4FDFC7F12FE12096FE4FDFC7FDBFE12F6
:1002CB00096FE4FDFC7F30FE12096FE4FDFC7F8DAE
:1002DB00FE12096FE4FDFC7F14FE12096FE4FDFCB6
:1002EB007FAFFE02096FE4900087F0A3F0120211BA
:1002FB001208551209C9120A601204E31206917F03
:10030B0001120980E4FB7D02FF1204474389027549
:10031B008CDC758ADCD28CD2A9D2AFD282D284C2C9
:10032B0080C2857B017A007905120577EF606790B3
:10033B000006E0FF7E00700C900085F0A37402F0C5
:10034B00C2A3804AEF64014E7008900085F0A304AD
:10035B00801FEF64024E700C900085F0A37402F0C6
:10036B00D2A3802AEF64034E700C900085F0A37427
:10037B0003F0C2A38010EF64044E7012900085F05E
:10038B00A37404F0D2A390000374C8F0809590007E
:10039B000374FFF0808D90000374FFF080854300A1
:1003AB0000FF162B6040004500000000000000001D
:1003BB000000000000000000000000000000000032
:1003CB000000000000000000000000000000000022
:1003DB000000000000000000000000000000000012
:1003EB00000000000000000060400005000000005D
:1003FB0000000000000000000000000000000000F2
:10040B0000000000000000000000000000000000E1
:10041B0000000000000000000000000000000000D1
:10042B00000000000000000000000000410003FF7E
:10043B00420085000243009FFF16030090008BEBE8
:10044B00F0900089EFF0A3EDF0E490008CF012082F
:10045B0094E4F9E9C3941074809480503190008B2C
:10046B00E075F040A424C3F582E5F03412F583E582
:10047B008229F582E43583F583E493FF7E007D01C9
:10048B007C0012096F90008CE004F00980C590008D
:10049B0089E0FFA3E004FD120894E4F9E9C394108A
:1004AB0074809480503190008BE075F040A424E36D
:1004BB00F582E5F03412F583E58229F582E4358384
:1004CB00F583E493FF7E007D017C0012096F9000A1
:1004DB008CE004F00980C52278897C007D017BFFCC
:1004EB007A16791C7E007F051200DE788E7C007DEB
:1004FB00017BFF7A1679217E007F051200DE7B01DE
:10050B007A00798990009D7405F07F101207587B53
:10051B00017A00798E9000977405F07F1012071006
:10052B00E4FFEFFD7C00C3940574809480501D7430
:10053B008E2FF582E43400F583E0FE74892FF5826B
:10054B00E43400F583E0B506030F80D6ED64054C6B
:10055B00601990009FE0FBA3E0FAA3E0F97D1A126B
:10056B000A037FF47E011209E7809322900089EB46
:10057B00F0A3EAF0A3E9F0E4A3F0A3F0A3F0C29395
:10058B007FE212079FD2937E002095047F008002AA
:10059B007F01EF4E601E7F647E001209E790008E94
:1005AB00E0FF04F0EF641E70DE120A601206917F0A
:1005BB00011209807F07120A8B90008CEFF0FD7FF0
:1005CB0007120A3790008CE030E62C7F60120A8B02
:1005DB0090008DEFF0900089E0FBA3E0FAA3E0F927
:1005EB00900097EFF07F611207107DFF7FE2120AF8
:1005FB003790008DE0FF227F0022787FE4F6D8FD54
:10060B0075810702064C0202F1E493A3F8E493A36D
:10061B004003F68001F208DFF48029E493A3F85439
:10062B0007240CC8C333C4540F4420C8834004F4BC
:10063B0056800146F6DFE4800B01020408102040CF
:10064B00809003A9E47E019360BCA3FF543F30E587
:10065B0009541FFEE493A360010ECF54C025E06044
:10066B00A840B8E493A3FAE493A3F8E493A3C8C512
:10067B0082C8CAC583CAF0A3C8C582C8CAC583CA03
:10068B00DFE9DEE780BE788F7C007D017BFF7A1689
:10069B0079267E007F051200DED2907F701208F360
:1006AB007D017F1C120A377D077F1D120A377F1CC5
:1006BB00120A8B7F1D120A8B7D0AE4FF120A377D0B
:1006CB00017F01120A377D017F02120A377D037FFA
:1006DB0003120A377DFF7F04120A377D3C7F051218
:1006EB000A377D267F06120A377B017A00798F7DC8
:1006FB0005120A1D7B017A00798F9000987405F022
:10070B00E4FF02081D900094EBF0A3EAF0A3E9F0DC
:10071B00C29312079FE4900098F0900097E0FFA31C
:10072B00E0C39F50257FFF12079F900094E0FBA32F
:10073B00E0FAA3E0F9900098E0F582758300EF12E0
:10074B00015C900098E004F080D0D2932290009A44
:10075B00EBF0A3EAF0A3E9F0C293EF4420FF1207FA
:10076B009FE490009EF090009DE0FFA3E0FEC39FEE
:10077B00501F90009AE0FBA3E0FAA3E0F98E82757C
:10078B00830012011DFF12079F90009EE004F08072
:10079B00D5D29322E4FEFDC291EEC39408748094EB
:1007AB00805033EF548064807004D2948002C294E2
:1007BB00EF25E0FFD29100ED25E0FD7A00209204B9
:1007CB007B0080027B01EB64014A7004ED4401FD68
:1007DB00C291000E80C3AF0522C0E0C083C082C0AF
:1007EB00D075D000C006C007900004E004F0E0F420
:1007FB0070031208C0900004E0FF900003E0B507FF
:10080B0004D281D283D007D006D0D0D082D083D06F
:10081B00E032900098E0FED39405748094804006FB
:10082B007D057E058000900098EEF0EFD394057463
:10083B00809480AE0740027E05AF06EF240AFF903E
:10084B000098E090009DF0020758E4F9E9FF7E0064
:10085B00C39408748094805027120954E490008943
:10086B00F0900089E0C3948074809480500F7D01D8
:10087B007C00E4FFFE12096FE004F080E40980CCF9
:10088B0022E0FE131313541FFDA907ED24B0FFE460
:10089B0033FEE4FDFC12096FE954F0C4540F7E00E3
:1008AB004410FFE4FDFC12096FE9540FFF7E00E4D6
:1008BB00FDFC02096F900085E0FEA3E0FF64014E92
:1008CB007005C281C28322EF64024E7005D281D2C1
:1008DB008322EF64034E7005D281C28322EF64043E
:1008EB004E7004C281D28322900094EFF0E4A3F007
:1008FB00EF5470900094F0120A98900095EFF0C2AC
:10090B00937F2712079F900095E0FF900094E04F94
:10091B00FF12079FD293020A98AC07120AA27F78A4
:10092B00C296E4FEEEC3940874809480501AAD070F
:10093B00ED548064807004D2978002C297EF25E05B
:10094B00FFD296C2960E80DC22EF24B0FFEE33FE70
:10095B00E4FDFC12096FE4FDFCFFFE12096F7F1032
:10096B00E4FDFCFEAB07AA06ED4C6003020A7DAF6B
:10097B0003120A6F2290008FEFF0E4FF120A8B90A4
:10098B00008FE0FD7C007006EF54FEFF800AED64E3
:10099B00014C7004EF4401FFAD07E4FF020A377FFF
:1009AB00017E007D507C00EF1FAA0670011E4A607D
:1009BB000CED1DAA0470011C4A60EC80F422E4F5D6
:1009CB0091759280F591759220F5917592087591BC
:1009DB0040F592C291D294D292D29322900093EE90
:1009EB00F0A3EFF090009374FFF5F01201FB45F0CC
:1009FB0060051209AA80ED22AF051DEF6013309937
:100A0B00FDC299120104F599740129F9E43AFA80AF
:100A1B00E722EDD3940574809480AF0540027F05E7
:100A2B00AD0790009DEFF07F10020758900094EDFA
:100A3B00F0C293EF4420FF12079F900094E0FF1247
:100A4B00079FD2932212092B120A5BAF0412092BB8
:100A5B00D296C29622439204D290439110C290D266
:100A6B0095D29322120924120A5BE4FF120A500258
:100A7B000003120924120A5B7F40120A5002000382
:100A8B00C29312079F7FFF12079FD29322C2937FBD
:100A9B000712079FD29322D296D297C297C2962261
:100AAB000000000000000000002F00000000070005
:100ABB00070000147F147F1400242A7F2A1200627F
:100ACB00640813230036495522500000050300002B
:100ADB0000001C224100000041221C000014083EB3
:100AEB0008140008083E0808000000A06000000879
:100AFB0008080808000060600000002010080402CD
:100B0B00003E5149453E0000427F4000004261518A
:100B1B004946002141454B31001814127F10002724
:100B2B0045454539003C4A494930000171090503E7
:100B3B0000364949493600064949291E0000363618
:100B4B00000000005636000000081422410000147B
:100B5B001414141400004122140800020151090658
:100B6B0000324959513E007C1211127C007F4949D9
:100B7B004936003E41414122007F4141221C007F0A
:100B8B0049494941007F09090901003E4149497A18
:100B9B00007F0808087F0000417F41000020404192
:100BAB003F01007F08142241007F40404040007FFE
:100BBB00020C027F007F0408107F003E4141413E42
:100BCB00007F09090906003E4151215E007F09198A
:100BDB0029460046494949310001017F0101003F87
:100BEB004040403F001F2040201F003F4038403F07
:100BFB00006314081463000708700807006151496B
:100C0B00454300007F41410000552A552A550000FD
:100C1B0041417F000004020102040040404040407B
:100C2B00000001020400002054545478007F484413
:100C3B00443800384444442000384444487F00384A
:100C4B005454541800087E0901020018A4A4A47C73
:100C5B00007F080404780000447D4000004080843D
:100C6B007D00007F102844000000417F4000007C85
:100C7B0004180478007C0804047800384444443891
:100C8B0000FC242424180018242418FC007C0804DD
:100C9B00040800485454542000043F444020003CB6
:100CAB004040207C001C2040201C003C4030403C3D
:100CBB00004428102844001CA0A0A07C00446454CD
:100CCB004C44141414141414000000000000000011
:100CDB000000000000000000000000F80000000011
:100CEB00000000333000000000100C06100C060052
:100CFB00000000000000000040C07840C0784000B9
:100D0B00043F04043F040400007088FC083000001A
:100D1B00001820FF211E0000F008F000E018000072
:100D2B0000211C031E211E0000F00888700000002B
:100D3B001E2123241927211010160E00000000007D
:100D4B000000000000000000000000E0180402009A
:100D5B00000000071820400000020418E00000000B
:100D6B000040201807000000404080F08040400009
:100D7B000202010F01020200000000F0000000005F
:100D8B000101011F01010100000000000000000033
:100D9B0080B07000000000000000000000000000A8
:100DAB000001010101010101000000000000000031
:100DBB0000303000000000000000000080601804CC
:100DCB00006018060100000000E010080810E000A9
:100DDB00000F102020100F00001010F80000000072
:100DEB000020203F202000000070080808887000B9
:100DFB000030282422213000003008888848300039
:100E0B000018202020110E000000C02010F8000058
:100E1B0000070424243F240000F8088888080800F1
:100E2B000019212020110E0000E010888818000006
:100E3B00000F112020110E0000380808C8380800D8
:100E4B000000003F00000000007088080888700058
:100E5B00001C222121221C0000E010080810E000D9
:100E6B000000312222110F00000000C0C000000062
:100E7B000000003030000000000000800000000087
:100E8B00000080600000000000008040201008007F
:100E9B000001020408102000404040404040400048
:100EAB000404040404040400000810204080000023
:100EBB000020100804020100007048080808F00028
:100ECB000000003036010000C030C828E810E000F8
:100EDB000718272423140B000000C038E000000083
:100EEB00203C23020227382008F8888888700000ED
:100EFB00203F202020110E00C030080808083800C1
:100F0B00071820202010080008F808080810E00037
:100F1B00203F202020100F0008F88888E8081000D8
:100F2B00203F20202320180008F88888E8081000AC
:100F3B00203F200003000000C030080808380000E4
:100F4B0007182020221E020008F808000008F808E5
:100F5B00203F210101213F20000808F8080800006C
:100F6B000020203F2020000000000808F80808009F
:100F7B00C08080807F00000008F888C02818080017
:100F8B00203F20012638200008F808000000000050
:100F9B00203F20202020300008F8F800F8F8080047
:100FAB00203F003F003F200008F830C00008F80841
:100FBB00203F200007183F00E01008080810E00051
:100FCB000F10202020100F0008F808080808F00068
:100FDB00203F210101010000E01008080810E0008B
:100FEB000F18242438504F0008F888888888700020
:100FFB00203F2000030C30200070880808083800C0
:10100B000038202121221C00180808F808081800B5
:10101B000000203F2000000008F808000008F80836
:10102B00001F202020201F000878880000C83808E7
:10103B00000007380E010000F80800F80008F8005F
:10104B00033C0700073C03000818688080681808F9
:10105B0020302C03032C30200838C800C838080077
:10106B000000203F2000000010080808C8380800C6
:10107B002038262120201800000000FE020202006A
:10108B000000007F40404000000C30C0000000001A
:10109B00000000010638C00000020202FE00000042
:1010AB00004040407F0000000000040202020400E8
:1010BB000000000000000000000000000000000025
:1010CB00808080808080808000020204000000000D
:1010DB000000000000000000000080808080000005
:1010EB000019242222223F2008F8008080000000F3
:1010FB00003F112020110E000000008080800000B6
:10110B00000E112020201100000000808088F800C4
:10111B00000E112020103F200000808080800000F6
:10112B00001F222222221300008080F0888888185A
:10113B000020203F20200000000080808080800065
:10114B00006B94949493600008F8008080800000FA
:10115B00203F210000203F200080989800000000D5
:10116B000020203F20200000000000809898000005
:10117B0000C08080807F000008F800008080800025
:10118B00203F24022D302000000808F8000000004A
:10119B000020203F20200000808080808080800005
:1011AB00203F20003F20003F808000808080000097
:1011BB00203F210000203F20000080808080000025
:1011CB00001F202020201F00808000808000000056
:1011DB0080FFA12020110E00000000808080800085
:1011EB00000E112020A0FF80808080008080800076
:1011FB0020203F21200001000000808080808000A3
:10120B000033242424241900008080E08080000017
:10121B000000001F20200000808000000080800064
:10122B00001F202020103F208080800000808080C5
:10123B0000010E3008060100808000800080808055
:10124B000F300C030C300F0000808000808080007A
:10125B000020312E0E3120008080800000808080A5
:10126B0080818E7018060100008080808080800055
:10127B000021302C2221300000000000807C020273
:10128B0000000000003F404000000000FF00000095
:10129B0000000000FF0000000002027C8000000044
:1012AB000040403F00000000000601010202040460
:1012BB000000000000000000101010FF10504454FC
:1012CB0065C6446454444000000000000000000068
:1012DB0000000000000000000444827F0182824A6B
:1012EB00562322524E820200000000000000000034
:1012FB00000000000000000080642C3424242C32F9
:10130B002222322E23A26000000000000000000009
:10131B0000000000000000008080414325291111CE
:10132B0011292543408080000000000000000000D0
:10133B00000000000000000090523410FF103452E7
:10134B0080708F0808F80800000000000000000003
:10135B000000000000000000829A566322528E00AB
:10136B008040330C33408000000000000000000080
:10137B0000000000000000001010FF109000FE9213
:10138B009292F292929E80000000000000000000FA
:10139B00000000000000000042827F0180601F00FF
:1013AB00FC44474444FC0000000000000000000027
:1013BB000000000000000000000000000000000022
:1013CB000000000000000000000000000000000012
:1013DB000000000000000000000036360000000096
:1013EB0000000000000000000000000000000000F2
:1013FB000000000000000000000000FE929292FE30
:10140B00929292FE0000000000000000000000001D
:10141B00000000000000000044442425140C04FFCD
:10142B00040C1425244444000000000000000000BC
:10143B000000000000000000404042424242C24215
:10144B0042424242424040000000000000000000C7
:10145B000000000000000000002070282423202042
:10146B0020242830E00000000000000000000000F5
:10147B0000000000000000002424A4FEA322002290
:10148B00CC0000FF00000000000000000000000086
:10149B000000000000000000080601FF000104042A
:1014AB00040404FF02020200000000000000000020
:1014BB000000000000000000101010FF10900888C2
:1014CB008888FF8888880800000000000000000062
:1014DB0000000000000000000444827F0180804077
:1014EB00432C102846818000000000000000000003
:1014FB00000000000000000004040484E43C2724E6
:10150B00242424E404040400000000000000000074
:10151B00000000000000000004020100FF0909099F
:10152B000949897F00000000000000000000000056
:10153B00000000000000000000FE225A8600FE9210
:10154B0092929292FE00000000000000000000004A
:10155B00000000000000000000FF04080700FF402F
:10156B0020030C142241400000000000000000008A
:10157B0000000000000000000080402018068000E2
:10158B000718204080000000000000000000000051
:10159B000000000000000000010020702826212020
:1015AB002024386000010100000000000000000052
:1015BB000000000000000000001012929292929224
:1015CB0092121202FE00000000000000000000005A
:1015DB0000000000000000000000003F1010101081
:1015EB003F0040807F000000000000000000000072
:1015FB000000000000000000524632344C30312015
:10160B006973206E6F742066696E6420212E2E2EF6
:10161B0000A5A5A5A5A500000000003443101001EE
:0B162B0079756E67756F6B656A69006A
:00000001FF
