:10000000020605E709F608DFFA8046E709F208DF8D
:10001000FA803E88828C83E709F0A3DFFA8032E31E
:1000200009F608DFFA8078E309F208DFFA807088C1
:10003000828C83E309F0A3DFFA806489828A83E0FB
:10004000A3F608DFFA805889828A83E0A3F208DFEA
:10005000FA804C80D280FA80C680D4806980F28099
:1000600033801080A680EA809A80A880DA80E280BF
:10007000CA803389828A83ECFAE493A3C8C582C814
:10008000CCC583CCF0A3C8C582C8CCC583CCDFE97E
:10009000DEE7800D89828A83E493A3F608DFF9EC1A
:1000A000FAA9F0EDFB2289828A83ECFAE0A3C8C5A5
:1000B00082C8CCC583CCF0A3C8C582C8CCC583CCCC
:1000C000DFEADEE880DB89828A83E493A3F208DF3B
:1000D000F980CC88F0EF60010E4E60C388F0ED240B
:1000E00002B4040050B9F582EB2402B4040050AF0E
:1000F000232345822390005373BB010689828A83A0
:10010000E0225002E722BBFE02E32289828A83E4D6
:100110009322BB010CE58229F582E5833AF583E061
:10012000225006E92582F8E622BBFE06E92582F880
:10013000E222E58229F582E5833AF583E49322BB46
:10014000010689828A83F0225002F722BBFE01F366
:1001500022F8BB010DE58229F582E5833AF583E8B3
:10016000F0225006E92582C8F622BBFE05E9258269
:10017000C8F222EF8DF0A4A8F0CF8CF0A428CE8D89
:10018000F0A42EFE22BC000BBE0029EF8DF084FFF0
:10019000ADF022E4CCF875F008EF2FFFEE33FEEC63
:1001A00033FCEE9DEC984005FCEE9DFE0FD5F0E98A
:1001B000E4CEFD22EDF8F5F0EE8420D21CFEADF089
:1001C00075F008EF2FFFED33FD4007985006D5F08E
:1001D000F222C398FD0FD5F0EA22C5F0F8A3E0287B
:1001E000F0C5F0F8E582158270021583E038F02240
:1001F000A3F8E0C5F025F0F0E582158270021583C2
:10020000E0C838F0E822E4FDFC7FAEFE1208F2E41C
:10021000FDFC7F40FE120903E4FDFC7FB0FE1209E5
:1002200003E4FDFC7F81FE120903E4FDFC7FFFFE79
:10023000120903E4FDFC7FA1FE120903E4FDFC7F2B
:10024000A6FE120903E4FDFC7FA8FE120903E4FDEB
:10025000FC7F3FFE120903E4FDFC7FC8FE12090388
:10026000E4FDFC7FD3FE120903E4FDFCFFFE12094E
:1002700003E4FDFC7FD5FE120903E4FDFC7F80FE54
:10028000120903E4FDFC7FD8FE120903E4FDFC7FA4
:1002900005FE120903E4FDFC7FD9FE120903E4FD0B
:1002A000FC7FF1FE120903E4FDFC7FDAFE12090374
:1002B000E4FDFC7F12FE120903E4FDFC7FDBFE126D
:1002C0000903E4FDFC7F30FE120903E4FDFC7F8D91
:1002D000FE120903E4FDFC7F14FE120903E4FDFC99
:1002E0007FAFFE020903E4900083F0A3F012020640
:1002F00012081C12095D1209F4120571120691E42C
:10030000FF120914E4FB7D03FF1203A77B017D03A9
:100310007F121203A77B027D037F241203A77B03B6
:100320007D037F361203A77B047D037F481203A75A
:100330007B05E4FDFF1203A77B06E4FD7F1012039B
:10034000A77B07E4FD7F201203A77B08E4FD7F3035
:100350001203A77B09E4FD7F401203A77B0AE4FD9B
:100360007F501203A77B0BE4FD7F601203A77B0C79
:10037000E4FD7F701203A7E4FF12091420B00E7B86
:10038000007A0079007D0C12044330B0FD20B10EDC
:100390007B007A0079017D0212044330B1FD7F05B4
:1003A0007E0012097B80D5900087EBF0900085EFEE
:1003B000F0A3EDF0E4900088F012085BE4F9E9C3E3
:1003C0009410748094805031900087E075F040A4C0
:1003D000245EF582E5F03412F583E58229F582E4A6
:1003E0003583F583E493FF7E007D017C00120903D1
:1003F000900088E004F00980C5900085E0FFA3E04C
:1004000004FD12085BE4F9E9C394107480948050F1
:1004100031900087E075F040A4247EF582E5F03449
:1004200012F583E58229F582E43583F583E493FFB1
:100430007E007D017C00120903900088E004F00931
:1004400080C522900085EBF0A3EAF0A3E9F0A3EDCC
:10045000F0E4A3F0A3F0A3F0C2937FE112079FD2D0
:1004600093C290900085E0FBA3E0FAA3E0F9A3E03B
:1004700090009AF07FA0120758D2907E0020950439
:100480007F0080027F01EF4E60257F017E00120910
:100490007B90008AE475F0011201F0AFF0FEBE011E
:1004A000DABFF4D71209F4120691E4FF1209147F9F
:1004B00007120A1F900089EFF0FD7F071209CB9009
:1004C0000089E030E40A7DFF7FE11209CB7F102232
:1004D000900089E07FFF30E5027F2022430000FF8B
:1004E00015C660400043000000000000000000004E
:1004F00000000000000000000000000000000000FC
:1005000000000000000000000000000000000000EB
:1005100000000000000000000000000000000000DB
:100520000000000000006040000300000000000028
:1005300000000000000000000000000000000000BB
:1005400000000000000000000000000000000000AB
:10055000000000000000000000000000000000009B
:100560000000000000000000000043009CFF159EFA
:100570000078857C007D017BFF7A1579B77E007F4E
:10058000051200D3788A7C007D017BFF7A1579BC47
:100590007E007F051200D37B017A00798590009A56
:1005A0007405F07F101207587B017A00798A900059
:1005B000937405F07F10120710E4FFEFFD7C00C379
:1005C000940574809480501D748A2FF582E4340061
:1005D000F583E0FE74852FF582E43400F583E0B501
:1005E00006030F80D6ED64054C601990009CE0FB7B
:1005F000A3E0FAA3E0F97D1A1209977FF47E0112B5
:10060000097B809322787FE4F6D8FD758107020686
:100610004C0202E6E493A3F8E493A34003F68001BE
:10062000F208DFF48029E493A3F85407240CC8C32C
:1006300033C4540F4420C8834004F456800146F666
:10064000DFE4800B01020408102040809004DCE409
:100650007E019360BCA3FF543F30E509541FFEE4C4
:1006600093A360010ECF54C025E060A840B8E49386
:10067000A3FAE493A3F8E493A3C8C582C8CAC583C8
:10068000CAF0A3C8C582C8CAC583CADFE9DEE7804D
:10069000BE788C7C007D017BFF7A1579C17E007F5E
:1006A000051200D3D2907F701208877D017F1C1243
:1006B00009CB7D077F1D1209CB7F1C120A1F7F1DEE
:1006C000120A1F7D0AE4FF1209CB7D017F01120986
:1006D000CB7D017F021209CB7D037F031209CB7D05
:1006E000FF7F041209CB7D3C7F051209CB7D267F5D
:1006F000061209CB7B017A00798C7D051209B17B4A
:10070000017A00798C9000957405F0E4FF0207E40B
:10071000900090EBF0A3EAF0A3E9F0C29312079FD8
:10072000E4900094F0900093E0FFA3E0C39F502575
:100730007FFF12079F900090E0FBA3E0FAA3E0F98F
:10074000900094E0F582758300EF120151900094BF
:10075000E004F080D0D29322900097EBF0A3EAF06F
:10076000A3E9F0C293EF4420FF12079FE490009B9F
:10077000F090009AE0FFA3E0FEC39F501F90009707
:10078000E0FBA3E0FAA3E0F98E8275830012011268
:10079000FF12079F90009BE004F080D5D29322E4E3
:1007A000FEFDC291EEC39408748094805033EF54E0
:1007B0008064807004D2948002C294EF25E0FFD25E
:1007C0009100ED25E0FD7A002092047B0080027B01
:1007D00001EB64014A7004ED4401FDC291000E80FA
:1007E000C3AF0522900095E0FED3940574809480F9
:1007F00040067D057E058000900095EEF0EFD394D5
:100800000574809480AE0740027E05AF06EF240A8F
:10081000FF900095E090009AF0020758E4F9E9FF94
:100820007E00C394087480948050271208E8E490F6
:100830000085F0900085E0C3948074809480500F10
:100840007D017C00E4FFFE120903E004F080E4096E
:1008500080CC22E0FE131313541FFDA907ED24B032
:10086000FFE433FEE4FDFC120903E954F0C4540F25
:100870007E004410FFE4FDFC120903E9540FFF7EE3
:1008800000E4FDFC020903900091EFF0E4A3F0EF17
:100890005470900091F0120A2C900092EFF0C293E5
:1008A0007F2712079F900092E0FF900091E04FFF9A
:1008B00012079FD293020A2CAC07120A367F78C225
:1008C00096E4FEEEC3940874809480501AAD07ED50
:1008D000548064807004D2978002C297EF25E0FFB5
:1008E000D296C2960E80DC22EF24B0FFEE33FEE4F7
:1008F000FDFC120903E4FDFCFFFE1209037F10E476
:10090000FDFCFEAB07AA06ED4C6003020A11AF0323
:10091000120A032290008CEFF0E4FF120A1F9000ED
:100920008CE0FD7C007006EF54FEFF800AED640150
:100930004C7004EF4401FFAD07E4FF0209CB7F01D7
:100940007E007D507C00EF1FAA0670011E4A600CDD
:10095000ED1DAA0470011C4A60EC80F422E4F591BC
:10096000759280F591759220F59175920875914078
:10097000F592C291D294D292D2932290008FEEF04F
:10098000A3EFF090008F74FFF5F01201F045F060D6
:100990000512093E80ED22AF051DEF60133099FD71
:1009A000C2991200F9F599740129F9E43AFA80E73D
:1009B00022EDD3940574809480AF0540027F05AD8D
:1009C0000790009AEFF07F10020758900091EDF029
:1009D000C293EF4420FF12079F900091E0FF12079F
:1009E0009FD293221208BF1209EFAF041208BFD2A0
:1009F00096C29622439204D290439110C290D2950F
:100A0000D293221208B81209EFE4FF1209E4020A95
:100A10003F1208B81209EF7F401209E4020A3FC2F0
:100A20009312079F7FFF12079FD29322C2937F07E3
:100A300012079FD29322D296D297C297C29622D201
:100A400096C297D297220000000000000000002FFD
:100A5000000000000700070000147F147F1400242A
:100A60002A7F2A1200626408132300364955225057
:100A700000000503000000001C224100000041228C
:100A80001C000014083E08140008083E0808000076
:100A900000A060000008080808080000606000006E
:100AA000002010080402003E5149453E0000427FEC
:100AB0004000004261514946002141454B31001838
:100AC00014127F10002745454539003C4A494930FA
:100AD00000017109050300364949493600064949B4
:100AE000291E0000363600000000563600000008BF
:100AF000142241000014141414140000412214089C
:100B000000020151090600324959513E007C121180
:100B1000127C007F49494936003E41414122007F15
:100B20004141221C007F49494941007F09090901CF
:100B3000003E4149497A007F0808087F0000417F54
:100B40004100002040413F01007F08142241007F06
:100B500040404040007F020C027F007F0408107F6D
:100B6000003E4141413E007F09090906003E4151D6
:100B7000215E007F09192946004649494931000193
:100B8000017F0101003F4040403F001F2040201FE7
:100B9000003F4038403F00631408146300070870AA
:100BA000080700615149454300007F41410000555D
:100BB0002A552A55000041417F0000040201020429
:100BC0000040404040400000010204000020545416
:100BD0005478007F48444438003844444420003866
:100BE0004444487F00385454541800087E090102D8
:100BF0000018A4A4A47C007F080404780000447DAD
:100C00004000004080847D00007F102844000000E8
:100C1000417F4000007C04180478007C08040478BC
:100C200000384444443800FC2424241800182424A8
:100C300018FC007C080404080048545454200004A4
:100C40003F444020003C4040207C001C2040201CB1
:100C5000003C4030403C004428102844001CA0A028
:100C6000A07C004464544C44141414141414000064
:100C70000000000000000000000000000000000074
:100C800000F80000000000000033300000000010F9
:100C90000C06100C0600000000000000000040C020
:100CA0007840C0784000043F04043F040400007012
:100CB00088FC08300000001820FF211E0000F0080A
:100CC000F000E018000000211C031E211E0000F0AF
:100CD0000888700000001E212324192721101016F7
:100CE0000E000000000000000000000000000000F6
:100CF00000E0180402000000000718204000000275
:100D00000418E000000000402018070000004040E8
:100D100080F0804040000202010F0102020000004A
:100D200000F0000000000101011F010101000000AE
:100D300000000000000080B0700000000000000013
:100D4000000000000000000101010101010100009C
:100D50000000000000000030300000000000000033
:100D6000000080601804006018060100000000E028
:100D700010080810E000000F102020100F000010D5
:100D800010F8000000000020203F2020000000702C
:100D90000808088870000030282422213000003024
:100DA0000888884830000018202020110E0000001C
:100DB000C02010F8000000070424243F240000F89D
:100DC0000888880808000019212020110E0000E082
:100DD000108888180000000F112020110E00003824
:100DE0000808C83808000000003F0000000000703C
:100DF000880808887000001C222121221C0000E0C5
:100E000010080810E0000000312222110F0000003D
:100E100000C0C000000000000030300000000000F2
:100E20000080000000000000806000000000000062
:100E300080402010080000010204081020004040FB
:100E4000404040404000040404040404040000083E
:100E500010204080000000201008040201000070F3
:100E600048080808F0000000003036010000C030DB
:100E7000C828E810E0000718272423140B000000FE
:100E8000C038E0000000203C23020227382008F888
:100E9000888888700000203F202020110E00C0307C
:100EA000080808083800071820202010080008F853
:100EB00008080810E000203F202020100F0008F84C
:100EC0008888E8081000203F20202320180008F818
:100ED0008888E8081000203F200003000000C03090
:100EE00008080838000007182020221E020008F811
:100EF00008000008F808203F210101213F200008D8
:100F000008F8080800000020203F20200000000012
:100F10000808F8080800C08080807F00000008F8FA
:100F200088C028180800203F20012638200008F833
:100F3000080000000000203F20202020300008F89A
:100F4000F800F8F80800203F003F003F200008F8B4
:100F500030C00008F808203F200007183F00E010CC
:100F600008080810E0000F10202020100F0008F8DB
:100F700008080808F000203F210101010000E010EE
:100F800008080810E0000F18242438504F0008F813
:100F9000888888887000203F2000030C3020007073
:100FA0008808080838000038202121221C00180871
:100FB00008F8080818000000203F2000000008F88A
:100FC00008000008F808001F202020201F000878D3
:100FD000880000C83808000007380E010000F80833
:100FE00000F80008F800033C0700073C030008185D
:100FF00068808068180820302C03032C30200838C3
:10100000C800C83808000000203F20000000100879
:101010000808C838080020382621202018000000C1
:1010200000FE020202000000007F40404000000C71
:1010300030C000000000000000010638C0000002BF
:101040000202FE000000004040407F00000000005F
:101050000402020204000000000000000000000082
:10106000000000000000808080808080808000027E
:10107000020400000000000000000000000000006A
:101080008080808000000019242222223F2008F85E
:10109000008080000000003F112020110E000000A1
:1010A000008080800000000E112020201100000030
:1010B00000808088F800000E112020103F200000E2
:1010C000808080800000001F2222222213000080E6
:1010D00080F0888888180020203F20200000000031
:1010E000808080808000006B94949493600008F866
:1010F000008080800000203F210000203F200080F1
:101100009898000000000020203F202000000000F0
:1011100000809898000000C08080807F000008F860
:10112000000080808000203F24022D302000000835
:1011300008F8000000000020203F202000008080F0
:10114000808080808000203F20003F20003F808002
:10115000008080800000203F210000203F20000010
:10116000808080800000001F202020201F008080C1
:1011700000808000000080FFA12020110E000000F0
:10118000008080808000000E112020A0FF808080E1
:1011900080008080800020203F212000010000008E
:1011A0008080808080000033242424241900008063
:1011B00080E0808000000000001F20200000808070
:1011C000000000808000001F202020103F20808031
:1011D00080000080808000010E30080601008080C1
:1011E0000080008080800F300C030C300F000080E6
:1011F0008000808080000020312E0E312000808011
:1012000080000080808080818E7018060100008040
:101210008080808080000021302C2221300000005E
:101220000000807C020200000000003F40400000FF
:101230000000FF00000000000000FF0000000002AE
:10124000027C800000000040403F000000000006DB
:101250000101020204040000000000000000000080
:10126000181610D0B897909090929410000000003B
:10127000000000000000000000000000000000204E
:10128000108C838041462810284443808000000051
:1012900000000000000000000000000000004040CE
:1012A00042CC0088898E88F8888C8B88800000006A
:1012B00000000000000000000000000000000040EE
:1012C000201F204050484641424458404000000002
:1012D000000000000000000000000000000000020C
:1012E0000C80608040300FC80808281800000000FB
:1012F00000000000000000000000000000000202EA
:101300007E01804020180601061820408000000061
:1013100000000000000000000000000000009052EB
:101320003410FF10345280708F0808F80800000055
:101330000000000000000000000000000000829A91
:10134000566322528E008040330C334080000000F0
:10135000000000000000000000000000000000008D
:10136000000000000000000000000000000000007D
:10137000000000000000000000000000000000006D
:1013800036360000000000000000000000000000F1
:10139000000000000000000000000000000000004D
:1013A00000FE929292FE929292FE000000000000D7
:1013B00000000000000000000000000000004444A5
:1013C0002425140C04FF040C1425244444000000BC
:1013D000000000000000000000000000000040408D
:1013E00042424242C2424242424242404000000027
:1013F00000000000000000000000000000000020CD
:1014000070282423202020242830E0000000000041
:101410000000000000000000000000000000242484
:10142000A4FEA3220022CC0000FF00000000000068
:10143000000000000000000000000000000008069E
:1014400001FF00010404040404FF02020200000082
:10145000000000000000000000000000000010106C
:1014600010FF109008888888FF888888080000008E
:101470000000000000000000000000000000044424
:10148000827F01808040432C10284681800000002C
:101490000000000000000000000000000000040444
:1014A0000484E43C2724242424E4040404000000ED
:1014B0000000000000000000000000000000040226
:1014C0000100FF0909090949897F000000000000A7
:1014D000000000000000000000000000000000FE0E
:1014E000225A8600FE9292929292FE000000000024
:1014F000000000000000000000000000000000FFED
:1015000004080700FF4020030C14224140000000A3
:10151000000000000000000000000000000000804B
:1015200040201806800007182040800000000000BE
:1015300000000000000000000000000000000100AA
:10154000207028262120202438600001010000009E
:10155000000000000000000000000000000000107B
:1015600012929292929292121202FE0000000000D9
:10157000000000000000000000000000000000006B
:10158000003F101010103F0040807F00000000005E
:1015900000000000000000000000000000005246B3
:1015A00032344C3031206973206E6F742066696E5E
:1015B0006420212E2E2E00A5A5A5A5A500000000C3
:1015C00000344310100177756A696E6368616E6755
:0115D000001A
:00000001FF
