:100000000206BEE709F608DFFA8046E709F208DFD4
:10001000FA803E88828C83E709F0A3DFFA8032E31E
:1000200009F608DFFA8078E309F208DFFA807088C1
:10003000828C83E309F0A3DFFA806489828A83E0FB
:10004000A3F608DFFA805889828A83E0A3F208DFEA
:10005000FA804C80D280FA80C680D4806980F28099
:1000600033801080A680EA809A80A880DA80E280BF
:10007000CA803389828A83ECFAE493A3C8C582C814
:10008000CCC583CCF0A3C8C582C8CCC583CCDFE97E
:10009000DEE7800D89828A83E493A3F608DFF9EC1A
:1000A000FAA9F0EDFB2289828A83ECFAE0A3C8C5A5
:1000B00082C8CCC583CCF0A3C8C582C8CCC583CCCC
:1000C000DFEADEE880DB89828A83E493A3F208DF3B
:1000D000F980CC88F0EF60010E4E60C388F0ED240B
:1000E00002B4040050B9F582EB2402B4040050AF0E
:1000F000232345822390005373BB010689828A83A0
:10010000E0225002E722BBFE02E32289828A83E4D6
:100110009322BB010CE58229F582E5833AF583E061
:10012000225006E92582F8E622BBFE06E92582F880
:10013000E222E58229F582E5833AF583E49322BB46
:10014000010689828A83F0225002F722BBFE01F366
:1001500022F8BB010DE58229F582E5833AF583E8B3
:10016000F0225006E92582C8F622BBFE05E9258269
:10017000C8F222EF8DF0A4A8F0CF8CF0A428CE8D89
:10018000F0A42EFE22BC000BBE0029EF8DF084FFF0
:10019000ADF022E4CCF875F008EF2FFFEE33FEEC63
:1001A00033FCEE9DEC984005FCEE9DFE0FD5F0E98A
:1001B000E4CEFD22EDF8F5F0EE8420D21CFEADF089
:1001C00075F008EF2FFFED33FD4007985006D5F08E
:1001D000F222C398FD0FD5F0EA22C5F0F8A3E0287B
:1001E000F0C5F0F8E582158270021583E038F02240
:1001F000A3F8E0C5F025F0F0E582158270021583C2
:10020000E0C838F0E822900085EFF0A3EDF0A3EA13
:10021000F0A3EBF0E490008DF0C3EA64809480508A
:1002200037900085E0FFA3E0FD90008AE090009108
:10023000F07B2D1203E1900087E0FEA3E0FFC3E412
:100240009FFFE49E900087F0A3EFF090008AE0C348
:1002500013FF900085E02FF0E490008BF090008970
:10026000E0FF90008BE0FEC39F4003020300C3EF5A
:100270009E14FD7F0A120B38900087E0FCA3E0FD7E
:10028000CFCDCFCECCCE1201857C007D0A12018568
:1002900090008CEDF0A3E07036900089E014FF90A0
:1002A000008BE0FEC39F5027A3E0701D90008AE002
:1002B000FCC3138EF0A4FF900085E02FFFA3E0FDA8
:1002C000900091ECF07B30802B90008D7401F090C9
:1002D000008AE0FEC313FFA3E0FDEF8DF0A4FF90C2
:1002E0000085E02FFFA3E0FD90008CE02430FB9020
:1002F0000091EEF01203E190008BE004F002025D49
:1003000022E4FDFC7FAEFE120A3EE4FDFC7F40FECF
:10031000120A4FE4FDFC7FB0FE120A4FE4FDFC7FA1
:1003200081FE120A4FE4FDFC7FFFFE120A4FE4FD3E
:10033000FC7FA1FE120A4FE4FDFC7FA6FE120A4FCD
:10034000E4FDFC7FA8FE120A4FE4FDFC7F3FFE1295
:100350000A4FE4FDFC7FC8FE120A4FE4FDFC7FD388
:10036000FE120A4FE4FDFCFFFE120A4FE4FDFC7F83
:10037000D5FE120A4FE4FDFC7F80FE120A4FE4FD19
:10038000FC7FD8FE120A4FE4FDFC7F05FE120A4FE7
:10039000E4FDFC7FD9FE120A4FE4FDFC7FF1FE1262
:1003A0000A4FE4FDFC7FDAFE120A4FE4FDFC7F12E7
:1003B000FE120A4FE4FDFC7FDBFE120A4FE4FDFC57
:1003C0007F30FE120A4FE4FDFC7F8DFE120A4FE4DF
:1003D000FDFC7F14FE120A4FE4FDFC7FAFFE020A13
:1003E0004F90008FEDF090008EEFF0FDE4900092C2
:1003F000F0F9EB24E0F0EDD3947F400AE490008E16
:10040000F0A3E02402F0900091E064107076900078
:100410008EE0FFA3E0FD120973E4F9900092E0750D
:10042000F010A429F582E435F0F583E5822450F537
:1004300082E583340EF583E493FF7E007D017C002A
:10044000120A4F09E9B408D390008EE0FFA3E0043C
:10045000FD120973E4F9900092E075F010A429F5FB
:1004600082E435F0F583E5822458F582E583340E85
:10047000F583E493FF7E007D017C00120A4F09E9B9
:10048000B408D32290008EE0FFA3E0FD120973E4CC
:10049000F9900092E075F006A42428F582E5F03486
:1004A0000CF583E58229F582E43583F583E493FF37
:1004B0007E007D017C00120A4F09E9B406D322E4D4
:1004C000900083F0A3F0120301120AAF120B1A126C
:1004D0000BCB1207D612085DE4FF120AD5E4FB7DB0
:1004E00003FF12074A7B017D037F1212074A7B023A
:1004F0007D037F2412074A7B037D037F3612074A60
:100500007B047D037F4812074A7B05E4FDFF120749
:100510004A7B06E4FD7F1012074A7B07E4FD7F203B
:1005200012074A7B08E4FD7F3012074A7B09E4FD8D
:100530007F4012074A7B0AE4FD7F5012074A7B0B7B
:10054000E4FD7F6012074A7B0CE4FD7F7012074ACE
:10055000E4FF120AD5900000E0FBA3E0FAA3E0F963
:100560007D0A12062A900084E004F0700690008351
:10057000E004F0900083E0FAA3E0FB9000897403AC
:10058000F0A37410F07D037F5A1202067FE87E0309
:10059000120B5680BB430000FF0C03604000430079
:1005A000000000000000000000000000000000004B
:1005B000000000000000000000000000000000003B
:1005C000000000000000000000000000000000002B
:1005D00000000000000000000000000000000060BB
:1005E00040000300000000000000000000000000C8
:1005F00000000000000000000000000000000000FB
:1006000000000000000000000000000000000000EA
:1006100000000000000000000000000000000000DA
:1006200000000043009CFF0A6000900085EBF0A3EF
:10063000EAF0A3E9F0A3EDF0E4A3F0A3F0A3F0C285
:10064000937FE112099FD293C290900085E0FBA3B3
:10065000E0FAA3E0F9A3E090009AF07FA012092449
:10066000D2907F012095027F00EF60257F017E0000
:10067000120B5690008AE475F0011201F0AFF0FE03
:10068000BE01DFBFF4DC120BCB12085DE4FF120ADF
:10069000D57F07120BF6900089EFF0FD7F07120B54
:1006A0008C900089E030E40A7DFF7FE1120B8C7FA3
:1006B0001022900089E07FFF30E5027F2022787FC2
:1006C000E4F6D8FD7581070207050204BFE493A391
:1006D000F8E493A34003F68001F208DFF48029E4F4
:1006E00093A3F85407240CC8C333C4540F4420C840
:1006F000834004F456800146F6DFE4800B010204D7
:100700000810204080900595E47E019360BCA3FF13
:10071000543F30E509541FFEE493A360010ECF540B
:10072000C025E060A840B8E493A3FAE493A3F8E4FA
:1007300093A3C8C582C8CAC583CAF0A3C8C582C866
:10074000CAC583CADFE9DEE780BE900087EBF09080
:100750000085EFF0A3EDF0E4900088F0120973E457
:10076000F9900087E075F040A42440F582E5F0346C
:1007700014F583E58229F582E43583F583E493FF5C
:100780007E007D017C00120A4F900088E004F00991
:10079000E9B410CD900085E0FFA3E004FD120973D9
:1007A000E4F9900087E075F040A42460F582E5F05C
:1007B0003414F583E58229F582E43583F583E493E7
:1007C000FF7E007D017C00120A4F900088E004F05B
:1007D00009E9B410CD2278857C007D017BFF7A0A7F
:1007E00079797E007F051200D3788A7C007D017BB9
:1007F000FF7A0A797E7E007F051200D37B017A00A2
:10080000798590009A7405F07F101209247B017A93
:1008100000798A9000937405F07F101208DCE4FFE1
:10082000748A2FF582E43400F583E0FE74852FF599
:1008300082E43400F583E0B506050FEFB405E1EF7F
:10084000B405012290009CE0FBA3E0FAA3E0F97D4F
:100850001A120B727FF47E01120B56809F788C7CEB
:10086000007D017BFF7A0A79837E007F051200D329
:10087000D2907F701209D27D017F1C120B8C7D07F4
:100880007F1D120B8C7F1C120BF67F1D120BF67D49
:100890000AE4FF120B8C7D017F01120B8C7D017F1E
:1008A00002120B8C7D037F03120B8C7DFF7F0412E1
:1008B0000B8C7D3C7F05120B8C7D267F06120B8CEA
:1008C0007B017A00798C7D05120BA57B017A00797A
:1008D0008C9000957405F0E4FF020A04900090EB00
:1008E000F0A3EAF0A3E9F0C29312099FE490009408
:1008F000F0900093E0FFA3E0C39F50257FFF120913
:100900009F900090E0FBA3E0FAA3E0F9900094E050
:10091000F582758300EF120151900094E004F0809D
:10092000D0D29322900097EBF0A3EAF0A3E9F0C2B3
:1009300093EF4420FF12099FE490009BF090009AEF
:10094000E0FFA3E0FEC39F501F900097E0FBA3E0F1
:10095000FAA3E0F98E82758300120112FF12099F3B
:1009600090009BE004F080D5D29322E0FE13131395
:10097000541FFDA907ED24B0FFE433FEE4FDFC1293
:100980000A4FE954F0C4540F7E004410FFE4FDFC0C
:10099000120A4FE9540FFF7E00E4FDFC020A4FE407
:1009A000FEFDC291EF30E704D2948002C294EF259D
:1009B000E0FFD29100ED25E0FD7C012092027C0059
:1009C000BC0104ED4401FDC291000EEEB408D5AFA8
:1009D0000522900091EFF0E4A3F0EF5470900091A5
:1009E000F0120C0E900092EFF0C2937F2712099F35
:1009F000900092E0FF900091E04FFF12099FD29388
:100A0000120C0E22900095E0FED3940540067D0561
:100A10007E058000900095EEF0EFD39405AE074080
:100A2000027E05AF06EF240AFF900095E090009A41
:100A3000F0020924E924B0FFE433FEE4FDFC120ACD
:100A40004FE4FDFCFFFE120A4F7F10E4FDFCFEABFD
:100A500007AA06ED4C6003020BE8AF03120BDA2283
:100A6000524632344C3031206973206E6F742066E8
:100A7000696E6420212E2E2E00A5A5A5A5A5000037
:100A80000000003443101001AC07120C187F78C22C
:100A900096E4FEAD07ED5480B48004D2978002C284
:100AA00097EF25E0FFD296C2960EEEB408E522E459
:100AB000F9120A34E4900085F07D017C00E4FFFE29
:100AC000120A4F900085E004F0E0C3948040EA09E8
:100AD000E9B408DD2290008CEFF0E4FF120BF690F1
:100AE000008CE0FE7006EF54FEFF8008EEB40104B7
:100AF000EF4401FFAD07E4FF020B8C7F017E007D18
:100B0000507C00EF1FAA0670011E4A600CED1DAA62
:100B10000470011C4A60EC80F422E4F59175928027
:100B2000F591759220F591759208759140F592C2F4
:100B300091D294D292D2932290008EEFF0A9057FA9
:100B4000017E00AD0119ED600C90008EE0FD7C008F
:100B500012017380EE2290008FEEF0A3EFF0900070
:100B60008F74FFF5F01201F045F06005120AFB806A
:100B7000ED22AF051DEF60133099FDC2991200F907
:100B8000F599740129F9E43AFA80E722900091ED91
:100B9000F0C293EF4420FF12099F900091E0FF12F2
:100BA000099FD29322EDD39405AF0540027F05AD96
:100BB0000790009AEFF07F10020924120A8F120B9F
:100BC000C6AF04120A8FD296C29622439204D290E4
:100BD000439110C290D295D29322120A88120BC66A
:100BE000E4FF120BBB020C21120A88120BC67F40D5
:100BF000120BBB020C21C29312099F7FFF12099FA7
:100C0000D2932279756E67756F6B656A6900C293BE
:100C10007F0712099FD29322D296D297C297C2968B
:100C200022D296C297D29722000000000000000056
:100C3000002F000000000700070000147F147F143D
:100C400000242A7F2A1200626408132300364955C3
:100C5000225000000503000000001C22410000009B
:100C600041221C000014083E08140008083E080831
:100C7000000000A06000000808080808000060608C
:100C80000000002010080402003E5149453E0000CB
:100C9000427F4000004261514946002141454B31AD
:100CA000001814127F10002745454539003C4A4979
:100CB00049300001710905030036494949360006EB
:100CC0004949291E00003636000000005636000053
:100CD00000081422410000141414141400004122CE
:100CE000140800020151090600324959513E007CA6
:100CF0001211127C007F49494936003E4141412290
:100D0000007F4141221C007F49494941007F090978
:100D10000901003E4149497A007F0808087F000028
:100D2000417F4100002040413F01007F08142241E3
:100D3000007F40404040007F020C027F007F04089B
:100D4000107F003E4141413E007F09090906003EF7
:100D50004151215E007F0919294600464949493120
:100D60000001017F0101003F4040403F001F204043
:100D7000201F003F4038403F006314081463000701
:100D80000870080700615149454300007F41410058
:100D900000552A552A55000041417F0000040201F8
:100DA00002040040404040400000010204000020D6
:100DB00054545478007F4844443800384444442014
:100DC00000384444487F00385454541800087E09C1
:100DD00001020018A4A4A47C007F08040478000089
:100DE000447D4000004080847D00007F1028440046
:100DF0000000417F4000007C04180478007C080457
:100E0000047800384444443800FC24242418001892
:100E1000242418FC007C080404080048545454207E
:100E200000043F444020003C4040207C001C204007
:100E3000201C003C4030403C004428102844001C4A
:100E4000A0A0A07C004464544C4414141414141442
:100E50000000000000000000000000000000000092
:100E6000000000F800000000000000333000000027
:100E700000100C06100C060000000000000000002E
:100E800040C07840C0784000043F04043F040400A0
:100E9000007088FC08300000001820FF211E0000B0
:100EA000F008F000E018000000211C031E211E00C5
:100EB00000F00888700000001E212324192721104B
:100EC00010160E00000000000000000000000000EE
:100ED000000000E018040200000000071820400095
:100EE00000020418E0000000004020180700000085
:100EF000404080F0804040000202010F01020200E9
:100F0000000000F0000000000101011F01010100CC
:100F1000000000000000000080B070000000000031
:100F200000000000000000000001010101010101BA
:100F30000000000000000000003030000000000051
:100F40000000000080601804006018060100000026
:100F500000E010080810E000000F102020100F0023
:100F6000001010F8000000000020203F20200000AA
:100F70000070080808887000003028242221300002
:100F800000300888884830000018202020110E000A
:100F90000000C02010F8000000070424243F2400B3
:100FA00000F80888880808000019212020110E0088
:100FB00000E0108888180000000F112020110E009A
:100FC00000380808C83808000000003F0000000092
:100FD0000070880808887000001C222121221C0053
:100FE00000E010080810E0000000312222110F007C
:100FF000000000C0C0000000000000303000000011
:101000000000008000000000000080600000000080
:101010000000804020100800000102040810200099
:1010200040404040404040000404040404040400E4
:101030000008102040800000002010080402010079
:10104000007048080808F000000000303601000079
:10105000C030C828E810E0000718272423140B002C
:101060000000C038E0000000203C230202273820A6
:1010700008F8888888700000203F202020110E008A
:10108000C030080808083800071820202010080081
:1010900008F808080810E000203F202020100F006A
:1010A00008F88888E8081000203F20202320180036
:1010B00008F88888E8081000203F2000030000009E
:1010C000C03008080838000007182020221E02003F
:1010D00008F808000008F808203F210101213F20FE
:1010E000000808F8080800000020203F2020000029
:1010F00000000808F8080800C08080807F00000019
:1011000008F888C028180800203F20012638200051
:1011100008F8080000000000203F202020203000B8
:1011200008F8F800F8F80800203F003F003F2000D2
:1011300008F830C00008F808203F200007183F00DA
:10114000E01008080810E0000F10202020100F0009
:1011500008F808080808F000203F210101010000FC
:10116000E01008080810E0000F18242438504F0041
:1011700008F8888888887000203F2000030C302001
:1011800000708808080838000038202121221C003F
:10119000180808F8080818000000203F2000000088
:1011A00008F808000008F808001F202020201F0071
:1011B0000878880000C83808000007380E010000D1
:1011C000F80800F80008F800033C0700073C03009B
:1011D000081868808068180820302C03032C302001
:1011E0000838C800C83808000000203F2000000070
:1011F00010080808C83808002038262120201800C8
:10120000000000FE020202000000007F404040009B
:10121000000C30C000000000000000010638C000D3
:1012200000020202FE000000004040407F0000007B
:1012300000000402020204000000000000000000A0
:10124000000000000000000080808080808080809E
:101250000002020400000000000000000000000086
:1012600000008080808000000019242222223F207C
:1012700008F8008080000000003F112020110E00BF
:101280000000008080800000000E1120202011004E
:10129000000000808088F800000E112020103F2000
:1012A0000000808080800000001F22222222130084
:1012B000008080F0888888180020203F20200000CF
:1012C0000000808080808000006B94949493600084
:1012D00008F8008080800000203F210000203F208F
:1012E00000809898000000000020203F202000008F
:1012F000000000809898000000C08080807F00007F
:1013000008F8000080808000203F24022D3020005B
:10131000000808F8000000000020203F2020000006
:101320008080808080808000203F20003F20003F20
:101330008080008080800000203F210000203F202E
:101340000000808080800000001F202020201F00DF
:10135000808000808000000080FFA12020110E000E
:101360000000008080808000000E112020A0FF80FF
:10137000808080008080800020203F2120000100AC
:101380000000808080808000003324242424190001
:10139000008080E0808000000000001F202000000E
:1013A0008080000000808000001F202020103F204F
:1013B000808080000080808000010E3008060100DF
:1013C00080800080008080800F300C030C300F0084
:1013D00000808000808080000020312E0E312000AF
:1013E000808080000080808080818E7018060100DF
:1013F00000808080808080000021302C22213000FD
:1014000000000000807C020200000000003F40401D
:1014100000000000FF00000000000000FF000000CE
:101420000002027C800000000040403F00000000FD
:101430000006010102020404000000000000000098
:101440000000181610D0B897909090929410000059
:10145000000000000000000000000000000000008C
:101460000020108C8380414628102844438080004F
:10147000000000000000000000000000000000006C
:10148000404042CC0088898E88F8888C8B88800008
:10149000000000000000000000000000000000004C
:1014A0000040201F204050484641424458404000E0
:1014B000000000000000000000000000000000002C
:1014C00000020C80608040300FC808082818000017
:1014D000000000000000000000000000000000000C
:1014E00002027E018040201806010618204080007C
:1014F00000000000000000000000000000000000EC
:1015000090523410FF10345280708F0808F8080091
:1015100000000000000000000000000000000000CB
:10152000829A566322528E008040330C33408000F2
:1015300000000000000000000000000000000000AB
:10154000000000000000000000000000000000009B
:10155000000000000000000000000000000000008B
:10156000000036360000000000000000000000000F
:10157000000000000000000000000000000000006B
:10158000000000FE929292FE929292FE00000000F5
:10159000000000000000000000000000000000004B
:1015A00044442425140C04FF040C14252444440052
:1015B000000000000000000000000000000000002B
:1015C000404042424242C2424242424242404000C5
:1015D000000000000000000000000000000000000B
:1015E000002070282423202020242830E000000040
:1015F00000000000000000000000000000000000EB
:101600002424A4FEA3220022CC0000FF000000003E
:1016100000000000000000000000000000000000CA
:10162000080601FF00010404040404FF0202020092
:1016300000000000000000000000000000000000AA
:10164000101010FF109008888888FF88888808008C
:10165000000000000000000000000000000000008A
:101660000444827F01808040432C10284681800002
:10167000000000000000000000000000000000006A
:1016800004040484E43C2724242424E40404040003
:10169000000000000000000000000000000000004A
:1016A00004020100FF0909090949897F00000000BF
:1016B000000000000000000000000000000000002A
:1016C00000FE225A8600FE9292929292FE00000044
:1016D000000000000000000000000000000000000A
:1016E00000FF04080700FF4020030C1422414000C3
:1016F00000000000000000000000000000000000EA
:10170000008040201806800007182040800000005C
:1017100000000000000000000000000000000000C9
:1017200001002070282621202024386000010100BB
:1017300000000000000000000000000000000000A9
:10174000001012929292929292121202FE000000E7
:101750000000000000000000000000000000000089
:101760000000003F101010103F0040807F0000007C
:101770000000000000000000000000000000000069
:00000001FF
