:1000000002053EE709F608DFFA8046E709F208DF55
:10001000FA803E88828C83E709F0A3DFFA8032E31E
:1000200009F608DFFA8078E309F208DFFA807088C1
:10003000828C83E309F0A3DFFA806489828A83E0FB
:10004000A3F608DFFA805889828A83E0A3F208DFEA
:10005000FA804C80D280FA80C680D4806980F28099
:1000600033801080A680EA809A80A880DA80E280BF
:10007000CA803389828A83ECFAE493A3C8C582C814
:10008000CCC583CCF0A3C8C582C8CCC583CCDFE97E
:10009000DEE7800D89828A83E493A3F608DFF9EC1A
:1000A000FAA9F0EDFB2289828A83ECFAE0A3C8C5A5
:1000B00082C8CCC583CCF0A3C8C582C8CCC583CCCC
:1000C000DFEADEE880DB89828A83E493A3F208DF3B
:1000D000F980CC88F0EF60010E4E60C388F0ED240B
:1000E00002B4040050B9F582EB2402B4040050AF0E
:1000F000232345822390005373BB010689828A83A0
:10010000E0225002E722BBFE02E32289828A83E4D6
:100110009322BB010CE58229F582E5833AF583E061
:10012000225006E92582F8E622BBFE06E92582F880
:10013000E222E58229F582E5833AF583E49322BB46
:10014000010689828A83F0225002F722BBFE01F366
:1001500022F8BB010DE58229F582E5833AF583E8B3
:10016000F0225006E92582C8F622BBFE05E9258269
:10017000C8F222EF8DF0A4A8F0CF8CF0A428CE8D89
:10018000F0A42EFE22BC000BBE0029EF8DF084FFF0
:10019000ADF022E4CCF875F008EF2FFFEE33FEEC63
:1001A00033FCEE9DEC984005FCEE9DFE0FD5F0E98A
:1001B000E4CEFD22EDF8F5F0EE8420D21CFEADF089
:1001C00075F008EF2FFFED33FD4007985006D5F08E
:1001D000F222C398FD0FD5F0EA22C5F0F8A3E0287B
:1001E000F0C5F0F8E582158270021583E038F02240
:1001F000A3F8E0C5F025F0F0E582158270021583C2
:10020000E0C838F0E822E4900083F0A3F01202EB9B
:10021000120A17120A82120B151206DE1207657FE8
:1002200001120A3DE4FB7D02FF1205CA7B017D023B
:100230007F121205CA7B027D027F241205CA7B034E
:100240007D027F361205CA7B047D027F481205CAF3
:100250007B05E4FDFF1205CA7B06E4FD7F10120555
:10026000CA7B07E4FD7F201205CA7B08E4FD7F30CE
:100270001205CA7B09E4FD7F401205CA7B0AE4FD32
:100280007F501205CA7B0BE4FD7F601205CA7B0C10
:10029000E4FD7F701205CA7FE87E03120AA07F0189
:1002A000120A3D7B017A007903120656EF60EF12C5
:1002B0000A17900083A3E0FD7B017A007903900088
:1002C0008A7408F0E4FF1207E4900084E004F07000
:1002D00006900083E004F0900083E07004A3E064E3
:1002E0000870BB900083F0A3F080B3E4FDFC7FAE08
:1002F000FE1209A6E4FDFC7F40FE1209B7E4FDFCF6
:100300007FB0FE1209B7E4FDFC7F81FE1209B7E45D
:10031000FDFC7FFFFE1209B7E4FDFC7FA1FE120980
:10032000B7E4FDFC7FA6FE1209B7E4FDFC7FA8FE42
:100330001209B7E4FDFC7F3FFE1209B7E4FDFC7F24
:10034000C8FE1209B7E4FDFC7FD3FE1209B7E4FD35
:10035000FCFFFE1209B7E4FDFC7FD5FE1209B7E4ED
:10036000FDFC7F80FE1209B7E4FDFC7FD8FE120978
:10037000B7E4FDFC7F05FE1209B7E4FDFC7FD9FE62
:100380001209B7E4FDFC7FF1FE1209B7E4FDFC7F22
:10039000DAFE1209B7E4FDFC7F12FE1209B7E4FD94
:1003A000FC7FDBFE1209B7E4FDFC7F30FE1209B7CB
:1003B000E4FDFC7F8DFE1209B7E4FDFC7F14FE1204
:1003C00009B7E4FDFC7FAFFE0209B790008DEDF0A8
:1003D00090008CEFF0FDE4900090F0F9EB24E0F059
:1003E000EDD3947F400AE490008CF0A3E02402F067
:1003F00090008FE06410707690008CE0FFA3E0FD29
:100400001208DBE4F9900090E075F010A429F58261
:10041000E435F0F583E582249AF582E583340DF521
:1004200083E493FF7E007D017C001209B709E9B4E3
:1004300008D390008CE0FFA3E004FD1208DBE4F990
:10044000900090E075F010A429F582E435F0F58372
:10045000E58224A2F582E583340DF583E493FF7EE3
:10046000007D017C001209B709E9B408D32290008D
:100470008CE0FFA3E0FD1208DBE4F9900090E0754A
:10048000F006A42472F582E5F0340BF583E58229A9
:10049000F582E43583F583E493FF7E007D017C00E3
:1004A0001209B709E9B406D322430000FF0B4D60DF
:1004B00040004300000000000000000000000000B9
:1004C000000000000000000000000000000000002C
:1004D000000000000000000000000000000000001C
:1004E000000000000000000000000000000000000C
:1004F0000000006040000300000000000000000059
:1005000000000000000000000000000000000000EB
:1005100000000000000000000000000000000000DB
:1005200000000000000000000000000000000000CB
:100530000000000000000043009BFF09C800787F16
:10054000E4F6D8FD758107020585020206E493A34F
:10055000F8E493A34003F68001F208DFF48029E475
:1005600093A3F85407240CC8C333C4540F4420C8C1
:10057000834004F456800146F6DFE4800B01020458
:1005800008102040809004A9E47E019360BCA3FF82
:10059000543F30E509541FFEE493A360010ECF548D
:1005A000C025E060A840B8E493A3FAE493A3F8E47C
:1005B00093A3C8C582C8CAC583CAF0A3C8C582C8E8
:1005C000CAC583CADFE9DEE780BE900087EBF09002
:1005D0000085EFF0A3EDF0E4900088F01208DBE472
:1005E000F9900087E075F040A4248AF582E5F034A4
:1005F00013F583E58229F582E43583F583E493FFDF
:100600007E007D017C001209B7900088E004F009AB
:10061000E9B410CD900085E0FFA3E004FD1208DBF3
:10062000E4F9900087E075F040A424AAF582E5F093
:100630003413F583E58229F582E43583F583E49369
:10064000FF7E007D017C001209B7900088E004F075
:1006500009E9B410CD22900085EBF0A3EAF0A3E9FC
:10066000F0E4A3F0A3F0A3F0C2937FE2120907D253
:10067000937F012095027F00EF601D7F647E001252
:100680000AA090008AE0FF04F0EFB41EE4120B15FC
:100690001207657F01120A3D7F07120B4090008808
:1006A000EFF0FD7F07120AD6900088E030E62C7F3D
:1006B00060120B40900089EFF0900085E0FBA3E012
:1006C000FAA3E0F9900093EFF07F611208447DFFF8
:1006D0007FE2120AD6900089E0FF227F002278850F
:1006E0007C007D017BFF7A0979E17E007F051200A5
:1006F000D3788A7C007D017BFF7A0979E67E007FD2
:10070000051200D37B017A0079859000997405F079
:100710007F1012088C7B017A00798A90009374050F
:10072000F07F10120844E4FF748A2FF582E434004D
:10073000F583E0FE74852FF582E43400F583E0B59F
:1007400006050FEFB405E1EFB405012290009BE030
:10075000FBA3E0FAA3E0F97D1A120ABC7FF47E0144
:10076000120AA0809F788B7C007D017BFF7A09793B
:10077000EB7E007F051200D3D2907F7012093A7D84
:10078000017F1C120AD67D077F1D120AD67F1C121C
:100790000B407F1D120B407D0AE4FF120AD67D013B
:1007A0007F01120AD67D017F02120AD67D037F03E4
:1007B000120AD67DFF7F04120AD67D3C7F05120AFD
:1007C000D67D267F06120AD67B017A00798B7D05BD
:1007D000120AEF7B017A00798B9000947405F0E4A3
:1007E000FF02096C900085EFF0A3EDF0A3EBF0A3FE
:1007F000EAF0A3E9F0E490008BF0900087E0FBA31F
:10080000E0FAA3E0F990008BE0F582758300120115
:1008100012FB602F900085E0FFA3E0FD90008AE0CE
:1008200090008FF01203CB900085E02408F0E0D315
:1008300094784007E4F0A3E02402F090008BE004F9
:10084000F080B722900090EBF0A3EAF0A3E9F0C2A9
:1008500093120907E4900094F0900093E0FFA3E066
:10086000C39F50257FFF120907900090E0FBA3E093
:10087000FAA3E0F9900094E0F582758300EF12018D
:1008800051900094E004F080D0D29322900096EB37
:10089000F0A3EAF0A3E9F0C293EF4420FF120907A6
:1008A000E490009AF0900099E0FFA3E0FEC39F500F
:1008B0001F900096E0FBA3E0FAA3E0F98E82758317
:1008C00000120112FF12090790009AE004F080D58F
:1008D000D29322E0FE131313541FFDA907ED24B099
:1008E000FFE433FEE4FDFC1209B7E954F0C4540FF1
:1008F0007E004410FFE4FDFC1209B7E9540FFF7EAF
:1009000000E4FDFC0209B7E4FEFDC291EF30E7040C
:10091000D2948002C294EF25E0FFD29100ED25E051
:10092000FD7C012092027C00BC0104ED4401FDC26B
:1009300091000EEEB408D5AF0522900090EFF0E4E0
:10094000A3F0EF5470900090F0120B58900091EFCC
:10095000F0C2937F27120907900091E0FF9000906A
:10096000E04FFF120907D293120B5822900094E037
:10097000FED3940540067D057E058000900094EE30
:10098000F0EFD39405AE0740027E05AF06EF240AD0
:10099000FF900094E0900099F002088CE924B0FFE9
:1009A000E433FEE4FDFC1209B7E4FDFCFFFE12098E
:1009B000B77F10E4FDFCFEAB07AA06ED4C60030216
:1009C0000B32AF03120B2422524632344C3031200A
:1009D0006973206E6F742066696E6420212E2E2E3E
:1009E00000A5A5A5A5A50000000000344310100136
:1009F000AC07120B627F78C296E4FEAD07ED54801F
:100A0000B48004D2978002C297EF25E0FFD296C24D
:100A1000960EEEB408E522E4F912099CE4900085F4
:100A2000F07D017C00E4FFFE1209B7900085E00430
:100A3000F0E0C3948040EA09E9B408DD2290008B1D
:100A4000EFF0E4FF120B4090008BE0FE7006EF54D5
:100A5000FEFF8008EEB40104EF4401FFAD07E4FFA0
:100A6000020AD67F017E007D507C00EF1FAA06702F
:100A7000011E4A600CED1DAA0470011C4A60EC8046
:100A8000F422E4F591759280F591759220F59175B7
:100A90009208759140F592C291D294D292D293224B
:100AA00090008FEEF0A3EFF090008F74FFF5F0123E
:100AB00001F045F06005120A6380ED22AF051DEFDD
:100AC00060133099FDC2991200F9F599740129F962
:100AD000E43AFA80E722900090EDF0C293EF4420D0
:100AE000FF120907900090E0FF120907D29322ED50
:100AF000D39405AF0540027F05AD07900099EFF054
:100B00007F1002088C1209F7120B10AF041209F7BC
:100B1000D296C29622439204D290439110C290D2B0
:100B200095D293221209F0120B10E4FF120B05026A
:100B30000B6B1209F0120B107F40120B05020B6BAE
:100B4000C2931209077FFF120907D2932279756EAB
:100B500067756F6B656A6900C2937F07120907D2D8
:100B60009322D296D297C297C29622D296C297D299
:100B700097220000000000000000002F000000008D
:100B80000700070000147F147F1400242A7F2A1214
:100B90000062640813230036495522500000050303
:100BA000000000001C224100000041221C00001433
:100BB000083E08140008083E0808000000A0600075
:100BC0000008080808080000606000000020100805
:100BD0000402003E5149453E0000427F4000004271
:100BE00061514946002141454B31001814127F10D4
:100BF000002745454539003C4A4949300001710903
:100C0000050300364949493600064949291E0000B6
:100C1000363600000000563600000008142241005D
:100C2000001414141414000041221408000201518D
:100C3000090600324959513E007C1211127C007F96
:100C400049494936003E41414122007F4141221C31
:100C5000007F49494941007F09090901003E414996
:100C6000497A007F0808087F0000417F410000208A
:100C700040413F01007F08142241007F4040404036
:100C8000007F020C027F007F0408107F003E41417C
:100C9000413E007F09090906003E4151215E007F67
:100CA000091929460046494949310001017F0101DE
:100CB000003F4040403F001F2040201F003F403881
:100CC000403F0063140814630007087008070061C0
:100CD0005149454300007F41410000552A552A559E
:100CE000000041417F000004020102040040404036
:100CF0004040000001020400002054545478007F5A
:100D00004844443800384444442000384444487F30
:100D100000385454541800087E0901020018A4A495
:100D2000A47C007F080404780000447D400000405B
:100D300080847D00007F102844000000417F400037
:100D4000007C04180478007C0804047800384444CB
:100D5000443800FC242424180018242418FC007CA7
:100D60000804040800485454542000043F44402020
:100D7000003C4040207C001C2040201C003C4030B7
:100D8000403C004428102844001CA0A0A07C004443
:100D900064544C4414141414141400000000000093
:100DA00000000000000000000000000000F800004B
:100DB0000000000000333000000000100C06100C92
:100DC0000600000000000000000040C07840C0782D
:100DD0004000043F04043F040400007088FC083015
:100DE0000000001820FF211E0000F008F000E018AD
:100DF000000000211C031E211E0000F00888700066
:100E000000001E2123241927211010160E000000B7
:100E100000000000000000000000000000E01804D6
:100E20000200000000071820400000020418E00043
:100E300000000040201807000000404080F0804083
:100E400040000202010F01020200000000F0000059
:100E500000000101011F010101000000000000006D
:100E6000000080B0700000000000000000000000E2
:100E7000000000010101010101010000000000006B
:100E80000000003030000000000000000000806022
:100E90001804006018060100000000E010080810A7
:100EA000E000000F102020100F00001010F80000CC
:100EB00000000020203F2020000000700808088863
:100EC0007000003028242221300000300888884833
:100ED00030000018202020110E000000C02010F863
:100EE000000000070424243F240000F80888880834
:100EF00008000019212020110E0000E01088881839
:100F00000000000F112020110E0000380808C8381A
:100F100008000000003F00000000007088080888FA
:100F20007000001C222121221C0000E01008081083
:100F3000E0000000312222110F00000000C0C000BC
:100F400000000000003030000000000000800000C1
:100F500000000000806000000000000080402010C1
:100F600008000001020408102000404040404040BA
:100F7000400004040404040404000008102040801D
:100F80000000002010080402010000704808080852
:100F9000F0000000003036010000C030C828E81022
:100FA000E0000718272423140B000000C038E000DD
:100FB0000000203C23020227382008F88888887027
:100FC0000000203F202020110E00C0300808080833
:100FD0003800071820202010080008F8080808101A
:100FE000E000203F202020100F0008F88888E80843
:100FF0001000203F20202320180008F88888E808E7
:101000001000203F200003000000C030080808380E
:10101000000007182020221E020008F8080000081F
:10102000F808203F210101213F20000808F80808A6
:1010300000000020203F2020000000000808F808E1
:101040000800C08080807F00000008F888C0281851
:101050000800203F20012638200008F80800000082
:101060000000203F20202020300008F8F800F8F889
:101070000800203F003F003F200008F830C0000873
:10108000F808203F200007183F00E010080808106B
:10109000E0000F10202020100F0008F808080808B2
:1010A000F000203F210101010000E01008080810B5
:1010B000E0000F18242438504F0008F888888888EA
:1010C0007000203F2000030C3020007088080808C2
:1010D00038000038202121221C00180808F80808D0
:1010E00018000000203F2000000008F80800000859
:1010F000F808001F202020201F000878880000C862
:101100003808000007380E010000F80800F8000851
:10111000F800033C0700073C03000818688080685B
:10112000180820302C03032C30200838C800C83899
:1011300008000000203F2000000010080808C83800
:1011400008002038262120201800000000FE02029E
:1011500002000000007F40404000000C30C0000052
:101160000000000000010638C00000020202FE007C
:101170000000004040407F00000000000402020226
:10118000040000000000000000000000000000005B
:101190000000808080808080808000020204000047
:1011A000000000000000000000000000808080803F
:1011B00000000019242222223F2008F8008080002D
:1011C0000000003F112020110E00000000808080F0
:1011D0000000000E112020201100000000808088F7
:1011E000F800000E112020103F2000008080808039
:1011F0000000001F222222221300008080F0888835
:1012000088180020203F202000000000808080807F
:101210008000006B94949493600008F800808080B4
:101220000000203F210000203F200080989800000F
:1012300000000020203F202000000000008098983F
:10124000000000C08080807F000008F800008080DF
:101250008000203F24022D302000000808F8000004
:1012600000000020203F20200000808080808080BF
:101270008000203F20003F20003F80800080808051
:101280000000203F210000203F200000808080805F
:101290000000001F202020201F0080800080800090
:1012A000000080FFA12020110E000000008080803F
:1012B0008000000E112020A0FF80808080008080B0
:1012C000800020203F2120000100000080808080DD
:1012D00080000033242424241900008080E08080D2
:1012E00000000000001F202000008080000000801F
:1012F0008000001F202020103F2080808000008080
:10130000808000010E30080601008080008000808F
:1013100080800F300C030C300F0000808000808034
:1013200080000020312E0E3120008080800000805F
:10133000808080818E70180601000080808080800F
:1013400080000021302C2221300000000000807C31
:10135000020200000000003F404000000000FF00CB
:10136000000000000000FF0000000002027C80007E
:1013700000000040403F00000000000601010202A2
:1013800004040000000000000000101010FF1050C6
:10139000445465C64464544440000000000000000A
:1013A000000000000000000000000444827F018271
:1013B000824A562322524E820200000000000000A2
:1013C0000000000000000000000080642C34242491
:1013D0002C322222322E23A26000000000000000E6
:1013E000000000000000000000008080414325292B
:1013F00011111129254340808000000000000000E9
:101400000000000000000000000090523410FF10A7
:10141000345280708F0808F80800000000000000B7
:1014200000000000000000000000829A5663225273
:101430008E008040330C334080000000000000002C
:10144000000000000000000000001010FF109000DD
:10145000FE929292F292929E8000000000000000A4
:101460000000000000000000000042827F01806058
:101470001F00FC44474444FC000000000000000042
:10148000000000000000000000000000000000005C
:10149000000000000000000000000000000000004C
:1014A00000000000000000000000000036360000D0
:1014B000000000000000000000000000000000002C
:1014C00000000000000000000000000000FE9292FA
:1014D00092FE929292FE00000000000000000000C8
:1014E0000000000000000000000044442425140C0B
:1014F00004FF040C142524444400000000000000F4
:101500000000000000000000000040404242424253
:10151000C2424242424242404000000000000000FD
:1015200000000000000000000000002070282423BC
:10153000202020242830E0000000000000000000EF
:10154000000000000000000000002424A4FEA322EC
:101550000022CC0000FF000000000000000000009E
:1015600000000000000000000000080601FF00016C
:101570000404040404FF0202020000000000000052
:1015800000000000000000000000101010FF10908C
:1015900008888888FF88888808000000000000000C
:1015A000000000000000000000000444827F018071
:1015B0008040432C1028468180000000000000007D
:1015C0000000000000000000000004040484E43C6B
:1015D0002724242424E40404040000000000000064
:1015E0000000000000000000000004020100FF09EC
:1015F00009090949897F000000000000000000007F
:101600000000000000000000000000FE225A8600DA
:10161000FE9292929292FE000000000000000000F4
:101620000000000000000000000000FF04080700A8
:10163000FF4020030C142241400000000000000085
:10164000000000000000000000000080402018069C
:10165000800007182040800000000000000000000B
:10166000000000000000000000000100207028269B
:10167000212020243860000101000000000000004B
:101680000000000000000000000000101292929282
:10169000929292121202FE00000000000000000070
:1016A000000000000000000000000000003F1010DB
:1016B00010103F0040807F0000000000000000008C
:0A16C0000000000000000000000020
:00000001FF
