:10000000020728E709F608DFFA8046E709F208DF69
:10001000FA803E88828C83E709F0A3DFFA8032E31E
:1000200009F608DFFA8078E309F208DFFA807088C1
:10003000828C83E309F0A3DFFA806489828A83E0FB
:10004000A3F608DFFA805889828A83E0A3F208DFEA
:10005000FA804C80D280FA80C680D4806980F28099
:1000600033801080A680EA809A80A880DA80E280BF
:10007000CA803389828A83ECFAE493A3C8C582C814
:10008000CCC583CCF0A3C8C582C8CCC583CCDFE97E
:10009000DEE7800D89828A83E493A3F608DFF9EC1A
:1000A000FAA9F0EDFB2289828A83ECFAE0A3C8C5A5
:1000B00082C8CCC583CCF0A3C8C582C8CCC583CCCC
:1000C000DFEADEE880DB89828A83E493A3F208DF3B
:1000D000F980CC88F0EF60010E4E60C388F0ED240B
:1000E00002B4040050B9F582EB2402B4040050AF0E
:1000F000232345822390005373BB010689828A83A0
:10010000E0225002E722BBFE02E32289828A83E4D6
:100110009322BB010CE58229F582E5833AF583E061
:10012000225006E92582F8E622BBFE06E92582F880
:10013000E222E58229F582E5833AF583E49322BB46
:10014000010689828A83F0225002F722BBFE01F366
:1001500022F8BB010DE58229F582E5833AF583E8B3
:10016000F0225006E92582C8F622BBFE05E9258269
:10017000C8F222EF8DF0A4A8F0CF8CF0A428CE8D89
:10018000F0A42EFE22BC000BBE0029EF8DF084FFF0
:10019000ADF022E4CCF875F008EF2FFFEE33FEEC63
:1001A00033FCEE9DEC984005FCEE9DFE0FD5F0E98A
:1001B000E4CEFD22EDF8F5F0EE8420D21CFEADF089
:1001C00075F008EF2FFFED33FD4007985006D5F08E
:1001D000F222C398FD0FD5F0EA22C5F0F8A3E0287B
:1001E000F0C5F0F8E582158270021583E038F02240
:1001F000A3F8E0C5F025F0F0E582158270021583C2
:10020000E0C838F0E82290008DEDF090008CEFF01F
:10021000FDE4900090F0F9EB24E0F0EDD3947F74CE
:10022000809480400AE490008CF0A3E02402F090D7
:10023000008FE0641060030202BF90008CE0FFA317
:10024000E0FD1209E2E4F9E9C39408748094805057
:100250002B900090E075F010A429F582E435F0F5BC
:1002600083E58224F5F582E583340DF583E493FF7D
:100270007E007D017C00120A8A0980CB90008CE010
:10028000FFA3E004FD1209E2E4F9E9C394087480D5
:100290009480506D900090E075F010A429F582E4F0
:1002A00035F0F583E58224FDF582E583340DF58391
:1002B000E493FF7E007D017C00120A8A0980CB90C6
:1002C000008CE0FFA3E0FD1209E2E4F9E9C3940623
:1002D00074809480502B900090E075F006A424CD9B
:1002E000F582E5F0340BF583E58229F582E4358368
:1002F000F583E493FF7E007D017C00120A8A098069
:10030000CB22E4900083F0A3F01203F51209A312AC
:100310000AE4120B7B1206061207B47F01120A9B35
:10032000E4FB7D02FF1204D57B017D027F121204E3
:10033000D57B027D027F241204D57B037D027F36AC
:100340001204D57B047D027F481204D57B05E4FDB1
:10035000FF1204D57B06E4FD7F101204D57B07E471
:10036000FD7F201204D57B08E4FD7F301204D57B8D
:1003700009E4FD7F401204D57B0AE4FD7F5012049E
:10038000D57B0BE4FD7F601204D57B0CE4FD7F7010
:100390001204D57FE87E03120B027F01120A9B7BB9
:1003A000017A00790312069AEF603A1209A39000CD
:1003B00083A3E0FD7B017A00790390008A7408F042
:1003C000E4FF120833900084E004F070069000838C
:1003D000E004F0900083E07004A3E06408700690ED
:1003E0000083F0A3F0900003E064017004C2A380D6
:1003F000A9D2A380A5E4FDFC7FAEFE120A79E4FD3C
:10040000FC7F40FE120A8AE4FDFC7FB0FE120A8ADD
:10041000E4FDFC7F81FE120A8AE4FDFC7FFFFE12F0
:100420000A8AE4FDFC7FA1FE120A8AE4FDFC7FA695
:10043000FE120A8AE4FDFC7FA8FE120A8AE4FDFC93
:100440007F3FFE120A8AE4FDFC7FC8FE120A8AE49E
:10045000FDFC7FD3FE120A8AE4FDFCFFFE120A8A2D
:10046000E4FDFC7FD5FE120A8AE4FDFC7F80FE12CB
:100470000A8AE4FDFC7FD8FE120A8AE4FDFC7F05AF
:10048000FE120A8AE4FDFC7FD9FE120A8AE4FDFC12
:100490007FF1FE120A8AE4FDFC7FDAFE120A8AE48A
:1004A000FDFC7F12FE120A8AE4FDFC7FDBFE120ACD
:1004B0008AE4FDFC7F30FE120A8AE4FDFC7F8DFE9B
:1004C000120A8AE4FDFC7F14FE120A8AE4FDFC7F16
:1004D000AFFE020A8A900087EBF0900085EFF0A350
:1004E000EDF0E4900088F01209E2E4F9E9C3941019
:1004F000748094805031900087E075F040A424E52A
:10050000F582E5F03413F583E58229F582E435833D
:10051000F583E493FF7E007D017C00120A8A90003F
:1005200088E004F00980C5900085E0FFA3E004FDA9
:100530001209E2E4F9E9C394107480948050319078
:100540000087E075F040A42405F582E5F03414F549
:1005500083E58229F582E43583F583E493FF7E0009
:100560007D017C00120A8A900088E004F00980C5B1
:1005700022430000FF174D604000430000000000D0
:10058000000000000000000000000000000000006B
:10059000000000000000000000000000000000005B
:1005A000000000000000000000000000000000004B
:1005B0000000000000000000000000604000030098
:1005C000000000000000000000000000000000002B
:1005D000000000000000000000000000000000001B
:1005E000000000000000000000000000000000000B
:1005F00000000000000000000000000000000043B8
:10060000009BFF17250078857C007D017BFF7A1712
:10061000793E7E007F051200D3788A7C007D017BC5
:10062000FF7A1779437E007F051200D37B017A00A1
:1006300079859000997405F07F101208DF7B017AAC
:1006400000798A9000937405F07F10120897E4FFF8
:10065000EFFD7C00C3940574809480501D748A2F34
:10066000F582E43400F583E0FE74852FF582E434EE
:1006700000F583E0B506030F80D6ED64054C6019E4
:1006800090009BE0FBA3E0FAA3E0F97D1A120B1E99
:100690007FF47E01120B02809322900085EBF0A381
:1006A000EAF0A3E9F0E4A3F0A3F0A3F0C2937FE2A1
:1006B000120926D2937E002095047F0080027F01DC
:1006C000EF4E601E7F647E00120B0290008AE0FFF6
:1006D00004F0EF641E70DE120B7B1207B47F011270
:1006E0000A9B7F07120BA6900088EFF0FD7F071290
:1006F0000B52900088E030E62C7F60120BA6900031
:1007000089EFF0900085E0FBA3E0FAA3E0F9900008
:1007100093EFF07F611208977DFF7FE2120B5290FA
:100720000089E0FF227F0022787FE4F6D8FD758102
:100730000702076F020302E493A3F8E493A34003C4
:10074000F68001F208DFF48029E493A3F85407242B
:100750000CC8C333C4540F4420C8834004F45680EB
:100760000146F6DFE4800B0102040810204080906F
:100770000571E47E019360BCA3FF543F30E509544A
:100780001FFEE493A360010ECF54C025E060A84093
:10079000B8E493A3FAE493A3F8E493A3C8C582C88A
:1007A000CAC583CAF0A3C8C582C8CAC583CADFE95F
:1007B000DEE780BE788B7C007D017BFF7A1779486D
:1007C0007E007F051200D3D2907F70120A0E7D0149
:1007D0007F1C120B527D077F1D120B527F1C120BC8
:1007E000A67F1D120BA67D0AE4FF120B527D017F2E
:1007F00001120B527D017F02120B527D037F031207
:100800000B527DFF7F04120B527D3C7F05120B5271
:100810007D267F06120B527B017A00798B7D0512B3
:100820000B387B017A00798B9000947405F0E4FF1B
:1008300002096B900085EFF0A3EDF0A3EBF0A3EAC3
:10084000F0A3E9F0E490008BF0900087E0FBA3E0D8
:10085000FAA3E0F990008BE0F58275830012011293
:10086000FB6033900085E0FFA3E0FD90008AE090FC
:10087000008FF0120206900085E02408F0E0D39487
:1008800078748094804007E4F0A3E02402F09000A4
:100890008BE004F080B322900090EBF0A3EAF0A389
:1008A000E9F0C293120926E4900094F0900093E0DE
:1008B000FFA3E0C39F50257FFF120926900090E020
:1008C000FBA3E0FAA3E0F9900094E0F582758300C1
:1008D000EF120151900094E004F080D0D293229066
:1008E0000096EBF0A3EAF0A3E9F0C293EF4420FFF7
:1008F000120926E490009AF0900099E0FFA3E0FE30
:10090000C39F501F900096E0FBA3E0FAA3E0F98E8E
:1009100082758300120112FF12092690009AE004EA
:10092000F080D5D29322E4FEFDC291EEC394087408
:100930008094805033EF548064807004D29480029D
:10094000C294EF25E0FFD29100ED25E0FD7A002072
:1009500092047B0080027B01EB64014A7004ED4449
:1009600001FDC291000E80C3AF0522900094E0FE0D
:10097000D394057480948040067D057E05800090A8
:100980000094EEF0EFD3940574809480AE0740029B
:100990007E05AF06EF240AFF900094E0900099F0E6
:1009A0000208DFE4F9E9FF7E00C3940874809480B4
:1009B0005027120A6FE4900085F0900085E0C39400
:1009C0008074809480500F7D017C00E4FFFE120A49
:1009D0008AE004F080E40980CC22E0FE1313135473
:1009E0001FFDA907ED24B0FFE433FEE4FDFC120A6D
:1009F0008AE954F0C4540F7E004410FFE4FDFC1259
:100A00000A8AE9540FFF7E00E4FDFC020A8A900086
:100A100090EFF0E4A3F0EF5470900090F0120BB35D
:100A2000900091EFF0C2937F27120926900091E089
:100A3000FF900090E04FFF120926D293020BB3AC57
:100A400007120BBD7F78C296E4FEEEC39408748053
:100A50009480501AAD07ED548064807004D2978062
:100A600002C297EF25E0FFD296C2960E80DC22EFFD
:100A700024B0FFEE33FEE4FDFC120A8AE4FDFCFF25
:100A8000FE120A8A7F10E4FDFCFEAB07AA06ED4CBD
:100A90006003020B98AF03120B8A2290008BEFF0D9
:100AA000E4FF120BA690008BE0FD7C007006EF5473
:100AB000FEFF800AED64014C7004EF4401FFAD07B6
:100AC000E4FF020B527F017E007D507C00EF1FAAE5
:100AD0000670011E4A600CED1DAA0470011C4A60DC
:100AE000EC80F422E4F591759280F591759220F5F1
:100AF00091759208759140F592C291D294D292D29A
:100B0000932290008FEEF0A3EFF090008F74FFF52A
:100B1000F01201F045F06005120AC580ED22AF0524
:100B20001DEF60133099FDC2991200F9F599740117
:100B300029F9E43AFA80E722EDD394057480948091
:100B4000AF0540027F05AD07900099EFF07F1002DE
:100B500008DF900090EDF0C293EF4420FF120926C9
:100B6000900090E0FF120926D29322120A46120B3F
:100B700076AF04120A46D296C29622439204D290CD
:100B8000439110C290D295D29322120A3F120B7653
:100B9000E4FF120B6B020BC6120A3F120B767F406A
:100BA000120B6B020BC6C2931209267FFF12092695
:100BB000D29322C2937F07120926D29322D296D2D1
:100BC00097C297C29622D296C297D297220000006F
:100BD0000000000000002F000000000700070000D8
:100BE000147F147F1400242A7F2A120062640813E1
:100BF0002300364955225000000503000000001C68
:100C0000224100000041221C000014083E0814008C
:100C100008083E0808000000A06000000808080856
:100C200008000060600000002010080402003E512F
:100C300049453E0000427F40000042615149460064
:100C40002141454B31001814127F100027454545BE
:100C500039003C4A49493000017109050300364911
:100C600049493600064949291E0000363600000071
:100C70000056360000000814224100001414141419
:100C800014000041221408000201510906003249F3
:100C900059513E007C1211127C007F4949493600AF
:100CA0003E41414122007F4141221C007F49494988
:100CB00041007F09090901003E4149497A007F0846
:100CC00008087F0000417F4100002040413F0100B3
:100CD0007F08142241007F40404040007F020C0208
:100CE0007F007F0408107F003E4141413E007F09A4
:100CF000090906003E4151215E007F09192946007D
:100D000046494949310001017F0101003F4040400F
:100D10003F001F2040201F003F4038403F00631429
:100D20000814630007087008070061514945430033
:100D3000007F41410000552A552A55000041417F5E
:100D40000000040201020400404040404000000155
:100D5000020400002054545478007F484444380072
:100D6000384444442000384444487F0038545454A4
:100D70001800087E0901020018A4A4A47C007F08C2
:100D80000404780000447D4000004080847D000021
:100D90007F102844000000417F4000007C041804BC
:100DA00078007C0804047800384444443800FC246B
:100DB0002424180018242418FC007C0804040800CB
:100DC000485454542000043F444020003C404020FC
:100DD0007C001C2040201C003C4030403C0044284B
:100DE000102844001CA0A0A07C004464544C44146F
:100DF000141414141400000000000000000000008F
:100E00000000000000000000F800000000000000EA
:100E1000333000000000100C06100C06000000002B
:100E2000000000000040C07840C0784000043F044B
:100E3000043F040400007088FC0830000000182003
:100E4000FF211E0000F008F000E018000000211C47
:100E5000031E211E0000F00888700000001E2123E0
:100E6000241927211010160E0000000000000000B9
:100E70000000000000000000E01804020000000074
:100E8000071820400000020418E000000000402085
:100E90001807000000404080F0804040000202013E
:100EA0000F01020200000000F0000000000101013B
:100EB0001F01010100000000000000000080B07070
:100EC0000000000000000000000000000000010120
:100ED00001010101010000000000000000003030AD
:100EE000000000000000000000806018040060188E
:100EF000060100000000E010080810E000000F10DC
:100F00002020100F00001010F8000000000020202A
:100F10003F2020000000700808088870000030287A
:100F20002422213000003008888848300000182032
:100F30002020110E000000C02010F800000007045F
:100F400024243F240000F80888880808000019219C
:100F50002020110E0000E0108888180000000F11FA
:100F60002020110E0000380808C8380800000000D2
:100F70003F000000000070880808887000001C22F4
:100F80002121221C0000E010080810E000000031C0
:100F90002222110F00000000C0C00000000000006D
:100FA00030300000000000008000000000000080E1
:100FB00060000000000000804020100800000102D6
:100FC0000408102000404040404040400004040419
:100FD00004040404000008102040800000002010D9
:100FE0000804020100007048080808F00000000032
:100FF0003036010000C030C828E810E0000718278C
:101000002423140B000000C038E0000000203C2323
:10101000020227382008F8888888700000203F20C6
:101020002020110E00C030080808083800071820DA
:10103000202010080008F808080810E000203F20D1
:101040002020100F0008F88888E8081000203F20B2
:10105000202320180008F88888E8081000203F2086
:101060000003000000C030080808380000071820FE
:1010700020221E020008F808000008F808203F217E
:101080000101213F20000808F80808000000202086
:101090003F2020000000000808F8080800C08080F9
:1010A000807F00000008F888C028180800203F2032
:1010B000012638200008F8080000000000203F202A
:1010C000202020300008F8F800F8F80800203F0041
:1010D0003F003F200008F830C00008F808203F20FB
:1010E0000007183F00E01008080810E0000F10206B
:1010F0002020100F0008F808080808F000203F2101
:101100000101010000E01008080810E0000F182499
:101110002438504F0008F8888888887000203F20C5
:1011200000030C30200070880808083800003820C0
:101130002121221C00180808F808081800000020C7
:101140003F2000000008F808000008F808001F20F1
:101150002020201F000878880000C83808000007F9
:10116000380E010000F80800F80008F800033C07FA
:1011700000073C0300081868808068180820302C9D
:1011800003032C30200838C800C8380800000020AD
:101190003F2000000010080808C838080020382642
:1011A0002120201800000000FE02020200000000C2
:1011B0007F40404000000C30C000000000000000F4
:1011C000010638C00000020202FE0000000040409C
:1011D000407F000000000004020202040000000042
:1011E000000000000000000000000000008080807F
:1011F0008080808080000202040000000000000067
:1012000000000000000000808080800000001924A1
:101210002222223F2008F8008080000000003F11B9
:101220002020110E000000008080800000000E11C0
:101230002020201100000000808088F800000E119E
:101240002020103F200000808080800000001F22AE
:101250002222221300008080F08888881800202035
:101260003F202000000000808080808000006B9480
:10127000949493600008F8008080800000203F2153
:101280000000203F200080989800000000002020EF
:101290003F20200000000000809898000000C080DF
:1012A00080807F000008F8000080808000203F24BC
:1012B000022D302000000808F80000000000202067
:1012C0003F202000008080808080808000203F20A0
:1012D000003F20003F8080008080800000203F2170
:1012E0000000203F200000808080800000001F2040
:1012F0002020201F00808000808000000080FFA14F
:101300002020110E000000008080808000000E115F
:101310002020A0FF80808080008080800020203FEF
:1013200021200001000000808080808000003324A4
:101330002424241900008080E08080000000000048
:101340001F202000008080000000808000001F20FF
:101350002020103F20808080000080808000010ECF
:10136000300806010080800080008080800F300CF3
:10137000030C300F0000808000808080000020314E
:101380002E0E312000808080000080808080818E41
:10139000701806010000808080808080000021306D
:1013A0002C2221300000000000807C02020000009E
:1013B00000003F404000000000FF0000000000006F
:1013C00000FF0000000002027C800000000040409E
:1013D0003F000000000006010102020404000000BA
:1013E0000000000000101010FF1050445465C64467
:1013F00064544440000000000000000000000000B1
:1014000000000000000444827F0182824A562322A9
:10141000524E8202000000000000000000000000A8
:10142000000000000080642C3424242C322222325C
:101430002E23A26000000000000000000000000059
:101440000000000000808041432529111111292549
:101450004340808000000000000000000000000009
:10146000000000000090523410FF10345280708F42
:101470000808F8080000000000000000000000005C
:101480000000000000829A566322528E0080403392
:101490000C3340800000000000000000000000004D
:1014A00000000000001010FF109000FE929292F2D7
:1014B00092929E80000000000000000000000000EA
:1014C000000000000042827F0180601F00FC444752
:1014D0004444FC0000000000000000000000000088
:1014E00000000000000000000000000000000000FC
:1014F00000000000000000000000000000000000EC
:10150000000000000000003636000000000000006F
:1015100000000000000000000000000000000000CB
:101520000000000000000000FE929292FE92929253
:10153000FE000000000000000000000000000000AD
:10154000000000000044442425140C04FF040C1483
:1015500025244444000000000000000000000000BA
:101560000000000000404042424242C24242424229
:101570004242404000000000000000000000000067
:1015800000000000000020702824232020202428B0
:1015900030E000000000000000000000000000003B
:1015A00000000000002424A4FEA3220022CC00009E
:1015B000FF0000000000000000000000000000002C
:1015C0000000000000080601FF00010404040404F8
:1015D000FF02020200000000000000000000000006
:1015E0000000000000101010FF109008888888FF8D
:1015F000888888080000000000000000000000004B
:1016000000000000000444827F01808040432C10D1
:10161000284681800000000000000000000000005B
:10162000000000000004040484E43C272424242453
:10163000E4040404000000000000000000000000BA
:10164000000000000004020100FF0909090949899E
:101650007F0000000000000000000000000000000B
:10166000000000000000FE225A8600FE9292929234
:1016700092FE0000000000000000000000000000DA
:10168000000000000000FF04080700FF4020030CDA
:101690001422414000000000000000000000000093
:1016A000000000000000804020180680000718207D
:1016B000408000000000000000000000000000006A
:1016C000000000000001002070282621202024387E
:1016D00060000101000000000000000000000000A8
:1016E0000000000000001012929292929292121248
:1016F00002FE0000000000000000000000000000EA
:1017000000000000000000003F101010103F0040DB
:10171000807F0000000000000000000000000000CA
:101720000000000000524632344C303120697320F2
:101730006E6F742066696E6420212E2E2E00A5A582
:10174000A5A5A50000000000344310100179756EB6
:0817500067756F6B656A6900A3
:00000001FF
