:100000000206B6E709F608DFFA8046E709F208DFDC
:10001000FA803E88828C83E709F0A3DFFA8032E31E
:1000200009F608DFFA8078E309F208DFFA807088C1
:10003000828C83E309F0A3DFFA806489828A83E0FB
:10004000A3F608DFFA805889828A83E0A3F208DFEA
:10005000FA804C80D280FA80C680D4806980F28099
:1000600033801080A680EA809A80A880DA80E280BF
:10007000CA803389828A83ECFAE493A3C8C582C814
:10008000CCC583CCF0A3C8C582C8CCC583CCDFE97E
:10009000DEE7800D89828A83E493A3F608DFF9EC1A
:1000A000FAA9F0EDFB2289828A83ECFAE0A3C8C5A5
:1000B00082C8CCC583CCF0A3C8C582C8CCC583CCCC
:1000C000DFEADEE880DB89828A83E493A3F208DF3B
:1000D000F980CC88F0EF60010E4E60C388F0ED240B
:1000E00002B4040050B9F582EB2402B4040050AF0E
:1000F000232345822390005373BB010689828A83A0
:10010000E0225002E722BBFE02E32289828A83E4D6
:100110009322BB010CE58229F582E5833AF583E061
:10012000225006E92582F8E622BBFE06E92582F880
:10013000E222E58229F582E5833AF583E49322BB46
:10014000010689828A83F0225002F722BBFE01F366
:1001500022F8BB010DE58229F582E5833AF583E8B3
:10016000F0225006E92582C8F622BBFE05E9258269
:10017000C8F222EF8DF0A4A8F0CF8CF0A428CE8D89
:10018000F0A42EFE22BC000BBE0029EF8DF084FFF0
:10019000ADF022E4CCF875F008EF2FFFEE33FEEC63
:1001A00033FCEE9DEC984005FCEE9DFE0FD5F0E98A
:1001B000E4CEFD22EDF8F5F0EE8420D21CFEADF089
:1001C00075F008EF2FFFED33FD4007985006D5F08E
:1001D000F222C398FD0FD5F0EA22C5F0F8A3E0287B
:1001E000F0C5F0F8E582158270021583E038F02240
:1001F000A3F8E0C5F025F0F0E582158270021583C2
:10020000E0C838F0E8229000A1EDF09000A0EFF0F7
:10021000FDE49000A4F0F9EB24E0F0EDD3947F74BA
:10022000809480400AE49000A0F0A3E02402F090C3
:1002300000A3E0641060030202BF9000A0E0FFA3EF
:10024000E0FD120970E4F9E9C394087480948050C9
:100250002B9000A4E075F010A429F582E435F0F5A8
:1002600083E5822483F582E583340DF583E493FFEF
:100270007E007D017C00120A180980CB9000A0E06E
:10028000FFA3E004FD120970E4F9E9C39408748047
:100290009480506D9000A4E075F010A429F582E4DC
:1002A00035F0F583E582248BF582E583340DF58303
:1002B000E493FF7E007D017C00120A180980CB9038
:1002C00000A0E0FFA3E0FD120970E4F9E9C3940681
:1002D00074809480502B9000A4E075F006A4245BF9
:1002E000F582E5F0340BF583E58229F582E4358368
:1002F000F583E493FF7E007D017C00120A180980DB
:10030000CB22E4900097F0A3F01203FD1209311202
:100310000A72120B09120622120742E4FF120A297E
:10032000E4FF120A2920A0307F057E00120A9020E7
:10033000A0269000847401F0FB7A0079837D02127C
:1003400005891209317BFF7A1679E690009E7404C4
:10035000F07D0A7F0A1207C120A1307F057E0012BE
:100360000A9020A1269000847402F07B017A007923
:1003700083FD1205891209317BFF7A1679EE900010
:100380009E7404F07D0A7F0A1207C120A3317F0505
:100390007E00120A9020A3279000847403F07B0152
:1003A0007A0079837D021205891209317BFF7A1662
:1003B00079F390009E7404F07D0A7F0A1207C12031
:1003C000A2317F057E00120A9020A227900084743B
:1003D00004F07B017A0079837D02120589120931CC
:1003E0007BFF7A1679F890009E7404F07D0A7F0AEC
:1003F0001207C1E4900084F0A3F0020320E4FDFCA6
:100400007FAEFE120A07E4FDFC7F40FE120A18E4EC
:10041000FDFC7FB0FE120A18E4FDFC7F81FE120A8B
:1004200018E4FDFC7FFFFE120A18E4FDFC7FA1FE2C
:10043000120A18E4FDFC7FA6FE120A18E4FDFC7FF8
:10044000A8FE120A18E4FDFC7F3FFE120A18E4FD24
:10045000FC7FC8FE120A18E4FDFC7FD3FE120A18C6
:10046000E4FDFCFFFE120A18E4FDFC7FD5FE120A33
:1004700018E4FDFC7F80FE120A18E4FDFC7FD8FE24
:10048000120A18E4FDFC7F05FE120A18E4FDFC7F49
:10049000D9FE120A18E4FDFC7FF1FE120A18E4FDF1
:1004A000FC7FDAFE120A18E4FDFC7F12FE120A1825
:1004B000E4FDFC7FDBFE120A18E4FDFC7F30FE1237
:1004C0000A18E4FDFC7F8DFE120A18E4FDFC7F147F
:1004D000FE120A18E4FDFC7FAFFE020A184300007A
:1004E000FF16DB5400830000000000000000000045
:1004F0000000000000000000000060400043000019
:1005000000000000000000000000000000000000EB
:1005100000000000000000000000000000000000DB
:1005200000000000000000000000000000000000CB
:10053000000000000000000000000000000060401B
:1005400000030000000000000000000000000000A8
:10055000000000000000000000000000000000009B
:10056000000000000000000000000000000000008B
:10057000000000000000000000000000000000007B
:1005800000004300B0FF16B300900099EBF0A3EA1F
:10059000F0A3E9F0A3EDF0E4A3F0A3F0A3F0C2937D
:1005A0007FE11208B4D293C290900099E0FBA3E0DF
:1005B000FAA3E0F9A3E09000AEF07FA012086DD29C
:1005C000907E002095047F0080027F01EF4E602521
:1005D0007F017E00120A9090009EE475F0011201E6
:1005E000F0AFF0FEBE01DABFF4D7120B09120742DA
:1005F000E4FF120A297F07120B3490009DEFF0FDF3
:100600007F07120AE090009DE030E40A7DFF7FE161
:10061000120AE07F102290009DE07FFF30E5027F0C
:10062000202278997C007D017BFF7A1679CC7E00B0
:100630007F051200D3789E7C007D017BFF7A1679BE
:10064000D17E007F051200D37B017A00799990005A
:10065000AE7405F07F1012086D7B017A00799E90D0
:1006600000A77405F07F10120825E4FFEFFD7C0061
:10067000C3940574809480501D749E2FF582E434D9
:1006800000F583E0FE74992FF582E43400F583E0F1
:10069000B506030F80D6ED64054C60199000B0E0FC
:1006A000FBA3E0FAA3E0F97D1A120AAC7FF47E0105
:1006B000120A90809322787FE4F6D8FD75810702B4
:1006C00006FD020302E493A3F8E493A34003F6803B
:1006D00001F208DFF48029E493A3F85407240CC83E
:1006E000C333C4540F4420C8834004F456800146E9
:1006F000F6DFE4800B01020408102040809004DD46
:10070000E47E019360BCA3FF543F30E509541FFE13
:10071000E493A360010ECF54C025E060A840B8E484
:1007200093A3FAE493A3F8E493A3C8C582C8CAC507
:1007300083CAF0A3C8C582C8CAC583CADFE9DEE799
:1007400080BE78A07C007D017BFF7A1679D67E0082
:100750007F051200D3D2907F7012099C7D017F1C0F
:10076000120AE07D077F1D120AE07F1C120B347F06
:100770001D120B347D0AE4FF120AE07D017F011295
:100780000AE07D017F02120AE07D037F03120AE086
:100790007DFF7F04120AE07D3C7F05120AE07D2682
:1007A0007F06120AE07B017A0079A07D05120AC655
:1007B0007B017A0079A09000A97405F0E4FF02089B
:1007C000F9900099EFF0A3EDF0A3EBF0A3EAF0A30A
:1007D000E9F0E490009FF090009BE0FBA3E0FAA317
:1007E000E0F990009FE0F582758300120112FB6032
:1007F00033900099E0FFA3E0FD90009EE09000A3FD
:10080000F0120206900099E02408F0E0D394787486
:100810008094804007E4F0A3E02402F090009FE081
:1008200004F080B3229000A4EBF0A3EAF0A3E9F077
:10083000C2931208B4E49000A8F09000A7E0FFA3D0
:10084000E0C39F50257FFF1208B49000A4E0FBA3F3
:10085000E0FAA3E0F99000A8E0F582758300EF12BA
:1008600001519000A8E004F080D0D293229000AB18
:10087000EBF0A3EAF0A3E9F0C293EF4420FF1208E3
:10088000B4E49000AFF09000AEE0FFA3E0FEC39FA1
:10089000501F9000ABE0FBA3E0FAA3E0F98E827555
:1008A0008300120112FF1208B49000AFE004F08040
:1008B000D5D29322E4FEFDC291EEC39408748094D5
:1008C000805033EF548064807004D2948002C294CC
:1008D000EF25E0FFD29100ED25E0FD7A00209204A3
:1008E0007B0080027B01EB64014A7004ED4401FD52
:1008F000C291000E80C3AF05229000A9E0FED39400
:10090000057480948040067D057E0580009000A9D6
:10091000EEF0EFD3940574809480AE0740027E051C
:10092000AF06EF240AFF9000A9E09000AEF00208A5
:100930006DE4F9E9FF7E00C3940874809480502729
:100940001209FDE4900099F0900099E0C39480743E
:10095000809480500F7D017C00E4FFFE120A18E0B5
:1009600004F080E40980CC22E0FE131313541FFD31
:10097000A907ED24B0FFE433FEE4FDFC120A18E9F8
:1009800054F0C4540F7E004410FFE4FDFC120A181A
:10099000E9540FFF7E00E4FDFC020A189000A5EF69
:1009A000F0E4A3F0EF54709000A5F0120B4190001A
:1009B000A6EFF0C2937F271208B49000A6E0FF9044
:1009C00000A5E04FFF1208B4D293020B41AC07120E
:1009D0000B4B7F78C296E4FEEEC39408748094803B
:1009E000501AAD07ED548064807004D2978002C223
:1009F00097EF25E0FFD296C2960E80DC22EF24B05E
:100A0000FFEE33FEE4FDFC120A18E4FDFCFFFE12CB
:100A10000A187F10E4FDFCFEAB07AA06ED4C60034C
:100A2000020B26AF03120B18229000A0EFF0E4FF98
:100A3000120B349000A0E0FD7C007006EF54FEFF26
:100A4000800AED64014C7004EF4401FFAD07E4FF40
:100A5000020AE07F017E007D507C00EF1FAA067035
:100A6000011E4A600CED1DAA0470011C4A60EC8056
:100A7000F422E4F591759280F591759220F59175C7
:100A80009208759140F592C291D294D292D293225B
:100A90009000A3EEF0A3EFF09000A374FFF5F01226
:100AA00001F045F06005120A5380ED22AF051DEFFD
:100AB00060133099FDC2991200F9F599740129F972
:100AC000E43AFA80E722EDD3940574809480AF0570
:100AD00040027F05AD079000AEEFF07F1002086D79
:100AE0009000A5EDF0C293EF4420FF1208B49000EF
:100AF000A5E0FF1208B4D293221209D4120B04AF5E
:100B0000041209D4D296C29622439204D290439101
:100B100010C290D295D293221209CD120B04E4FF99
:100B2000120AF9020B541209CD120B047F40120A6B
:100B3000F9020B54C2931208B47FFF1208B4D29387
:100B400022C2937F071208B4D29322D296D297C2C0
:100B500097C29622D296C297D29722000000000038
:100B6000000000002F000000000700070000147FB5
:100B7000147F1400242A7F2A1200626408132300C1
:100B8000364955225000000503000000001C224198
:100B900000000041221C000014083E081400080850
:100BA0003E0808000000A0600000080808080800CF
:100BB0000060600000002010080402003E5149451A
:100BC0003E0000427F400000426151494600214101
:100BD000454B31001814127F100027454545390058
:100BE0003C4A494930000171090503003649494929
:100BF0003600064949291E0000363600000000561E
:100C000036000000081422410000141414141400CB
:100C100000412214080002015109060032495951CD
:100C20003E007C1211127C007F49494936003E414A
:100C3000414122007F4141221C007F494949410036
:100C40007F09090901003E4149497A007F080808E7
:100C50007F0000417F4100002040413F01007F08AC
:100C6000142241007F40404040007F020C027F0080
:100C70007F0408107F003E4141413E007F09090981
:100C800006003E4151215E007F0919294600464970
:100C90004949310001017F0101003F4040403F00D0
:100CA0001F2040201F003F4038403F0063140814BD
:100CB0006300070870080700615149454300007F41
:100CC00041410000552A552A55000041417F00004E
:100CD00004020102040040404040400000010204C0
:100CE00000002054545478007F484444380038446D
:100CF00044442000384444487F0038545454180079
:100D0000087E0901020018A4A4A47C007F08040442
:100D1000780000447D4000004080847D00007F100A
:100D20002844000000417F4000007C041804780043
:100D30007C0804047800384444443800FC2424240B
:100D4000180018242418FC007C08040408004854E7
:100D500054542000043F444020003C4040207C008C
:100D60001C2040201C003C4030403C0044281028FF
:100D700044001CA0A0A07C004464544C44141414EF
:100D80001414140000000000000000000000000027
:100D9000000000000000F8000000000000003330F8
:100DA00000000000100C06100C06000000000000FF
:100DB00000000040C07840C0784000043F04043F79
:100DC000040400007088FC08300000001820FF2197
:100DD0001E0000F008F000E018000000211C031EB7
:100DE000211E0000F00888700000001E2123241935
:100DF00027211010160E0000000000000000000067
:100E0000000000000000E0180402000000000718C5
:100E100020400000020418E00000000040201807F5
:100E2000000000404080F0804040000202010F01BD
:100E3000020200000000F0000000000101011F019B
:100E4000010100000000000000000080B070000000
:100E5000000000000000000000000000010101018E
:100E6000010101000000000000000000303000001F
:100E700000000000000000806018040060180601F7
:100E800000000000E010080810E000000F10202013
:100E9000100F00001010F8000000000020203F207C
:100EA0002000000070080808887000003028242204
:100EB00021300000300888884830000018202020A9
:100EC000110E000000C02010F800000007042424C8
:100ED0003F240000F8088888080800001921202015
:100EE000110E0000E0108888180000000F1120206B
:100EF000110E0000380808C83808000000003F0044
:100F00000000000070880808887000001C22212161
:100F1000221C0000E010080810E00000003122222E
:100F2000110F00000000C0C00000000000003030C1
:100F30000000000000008000000000000080600051
:100F4000000000000080402010080000010204089A
:100F5000102000404040404040400004040404048D
:100F60000404000008102040800000002010080445
:100F7000020100007048080808F000000000303648
:100F8000010000C030C828E810E00007182724231B
:100F9000140B000000C038E0000000203C230202D7
:100FA00027382008F8888888700000203F202020FB
:100FB000110E00C03008080808380007182020204B
:100FC00010080008F808080810E000203F20202042
:100FD000100F0008F88888E8081000203F20202320
:100FE00020180008F88888E8081000203F20000337
:100FF000000000C030080808380000071820202230
:101000001E020008F808000008F808203F2101012E
:10101000213F20000808F8080800000020203F2099
:1010200020000000000808F8080800C08080807FC9
:1010300000000008F888C028180800203F2001267A
:1010400038200008F8080000000000203F20202081
:1010500020300008F8F800F8F80800203F003F00B2
:101060003F200008F830C00008F808203F200007A3
:10107000183F00E01008080810E0000F10202020A2
:10108000100F0008F808080808F000203F210101AF
:10109000010000E01008080810E0000F18242438B0
:1010A000504F0008F8888888887000203F2000038F
:1010B0000C302000708808080838000038202121F2
:1010C000221C00180808F8080818000000203F201B
:1010D00000000008F808000008F808001F20202081
:1010E000201F000878880000C83808000007380E64
:1010F000010000F80800F80008F800033C070007AA
:101100003C0300081868808068180820302C03030E
:101110002C30200838C800C83808000000203F20C4
:1011200000000010080808C83808002038262120D0
:10113000201800000000FE020202000000007F40B4
:10114000404000000C30C00000000000000001061C
:1011500038C00000020202FE000000004040407F54
:101160000000000000040202020400000000000071
:1011700000000000000000000000008080808080EF
:1011800080808000020204000000000000000000D7
:1011900000000000008080808000000019242222CE
:1011A000223F2008F8008080000000003F1120202E
:1011B000110E000000008080800000000E11202031
:1011C000201100000000808088F800000E1120200F
:1011D000103F200000808080800000001F2222221B
:1011E000221300008080F0888888180020203F208B
:1011F0002000000000808080808000006B94949428
:1012000093600008F8008080800000203F210000EB
:10121000203F2000809898000000000020203F2000
:10122000200000000000809898000000C0808080AE
:101230007F000008F8000080808000203F24022DFD
:10124000302000000808F8000000000020203F20A7
:101250002000008080808080808000203F20003F30
:1012600020003F8080008080800000203F2100001F
:10127000203F200000808080800000001F20202070
:10128000201F00808000808000000080FFA12020BF
:10129000110E000000008080808000000E112020D0
:1012A000A0FF80808080008080800020203F21205F
:1012B000000100000080808080800000332424240E
:1012C000241900008080E0808000000000001F20C2
:1012D0002000008080000000808000001F2020206F
:1012E000103F20808080000080808000010E300848
:1012F00006010080800080008080800F300C030C8D
:10130000300F0000808000808080000020312E0E91
:10131000312000808080000080808080818E701865
:1013200006010000808080808080000021302C2217
:1013300021300000000000807C020200000000005C
:101340003F404000000000FF00000000000000FFE0
:101350000000000002027C800000000040403F00CE
:101360000000000006010102020404000000000069
:101370000000000000181610D0B89790909092943A
:10138000100000000000000000000000000000004D
:101390000000000020108C83804146281028444320
:1013A000808000000000000000000000000000003D
:1013B000000000404042CC0088898E88F8888C8BE1
:1013C0008880000000000000000000000000000015
:1013D0000000000040201F20405048464142445831
:1013E000404000000000000000000000000000007D
:1013F00000000000020C80608040300FC808082800
:1014000018000000000000000000000000000000C4
:1014100000000002027E018040201806010618200C
:1014200040800000000000000000000000000000FC
:1014300000000090523410FF10345280708F080862
:10144000F80800000000000000000000000000009C
:10145000000000829A566322528E008040330C3383
:1014600040800000000000000000000000000000BC
:10147000000000000000000000000000000000006C
:10148000000000000000000000000000000000005C
:1014900000000000003636000000000000000000E0
:1014A000000000000000000000000000000000003C
:1014B000000000000000FE929292FE929292FE00C6
:1014C000000000000000000000000000000000001C
:1014D00000000044442425140C04FF040C142524AB
:1014E0004444000000000000000000000000000074
:1014F000000000404042424242C242424242424216
:10150000404000000000000000000000000000005B
:10151000000000002070282423202020242830E010
:1015200000000000000000000000000000000000BB
:101530000000002424A4FEA3220022CC0000FF000F
:10154000000000000000000000000000000000009B
:10155000000000080601FF00010404040404FF0267
:101560000202000000000000000000000000000077
:10157000000000101010FF109008888888FF8888ED
:1015800088080000000000000000000000000000CB
:101590000000000444827F01808040432C102846D4
:1015A000818000000000000000000000000000003A
:1015B00000000004040484E43C2724242424E404DC
:1015C0000404000000000000000000000000000013
:1015D00000000004020100FF0909090949897F0090
:1015E00000000000000000000000000000000000FB
:1015F00000000000FE225A8600FE9292929292FE15
:1016000000000000000000000000000000000000DA
:1016100000000000FF04080700FF4020030C142214
:101620004140000000000000000000000000000039
:10163000000000008040201806800007182040802D
:10164000000000000000000000000000000000009A
:10165000000000010020702826212020243860008E
:101660000101000000000000000000000000000078
:10167000000000001012929292929292121202FEB8
:10168000000000000000000000000000000000005A
:101690000000000000003F101010103F0040807F4D
:1016A000000000000000000000000000000000003A
:1016B000000000524632344C3031206973206E6F86
:1016C000742066696E6420212E2E2E00A5A5A5A586
:1016D000A50000000000344310100179756E677595
:1016E0006F6B656A6900616476616E63650053744F
:0E16F0006F70006C6566740072696768740044
:00000001FF
